S00F000043355F424F4F542E737265630A
S3150800000000000524191100088D0F0008950F000837
S315080000109D0F0008A50F0008AD0F0008000000009E
S31508000020000000000000000000000000B50F0008F6
S31508000030C30F000800000000D10F0008DF0F0008FA
S315080000406D1100086D1100086D1100086D1100088A
S315080000506D1100086D1100086D1100086D1100087A
S315080000606D1100086D1100086D1100086D1100086A
S315080000706D1100086D1100086D1100086D1100085A
S315080000806D1100086D1100086D1100086D1100084A
S315080000906D1100086D1100086D1100086D1100083A
S315080000A06D1100086D1100086D1100086D1100082A
S315080000B06D1100086D1100086D1100086D1100081A
S315080000C06D1100086D1100086D1100086D1100080A
S315080000D06D1100086D1100086D1100086D110008FA
S315080000E06D1100086D110008000000006D11000870
S315080000F06D1100086D1100086D1100086D110008DA
S315080001006D1100086D1100086D1100086D110008C9
S315080001106D1100086D1100086D1100086D110008B9
S315080001206D1100086D1100086D1100086D110008A9
S315080001306D1100086D1100086D1100086D11000899
S3150800014000000000000000000000000000000000A1
S315080001506D1100086D1100086D1100086D11000879
S315080001606D1100086D1100086D1100086D11000869
S315080001706D1100086D1100086D1100086D11000859
S315080001806D1100086D1100086D1100086D11000849
S315080001906D1100086D1100086D1100086D11000839
S315080001A06D1100086D1100086D11000800000000AF
S315080001B06D1100086D1100086D1100086D11000819
S315080001C06D1100086D110008000000000000000015
S315080001D000000000000000006D110008000000008B
S315080001E00000000000000000000000000000000001
S315080001F000000000000000006D1100086D110008E5
S315080002006D1100086D110008000000006D1100084E
S315080002106D1100086D1100086D1100086D110008B8
S315080002206D110008000000006D11000800000000B4
S315080002306D1100086D110008000000006D1100081E
S315080002406D1100086D1100086D1100086D11000888
S315080002506D1100086D1100086D1100086D11000878
S315080002606D1100086D1100086D1100086D11000868
S315080002706D1100086D1100086D11000800000000DE
S315080002806D1100086D1100086D1100086D11000848
S31508000290000000006D1100086D1100086D110008BE
S315080002A06D1100086D1100086D1100086D11000828
S315080002B06D1100086D1100086D1100086D11000818
S311080002C06D1100086D1100086D11000892
S315080002CC10B5054C237833B9044B13B10448AFF376
S315080002DC00800123237010BD2C00002400000000B0
S315080002EC8854000808B5034B1BB103490348AFF300
S315080002FC008008BD00000000300000248854000867
S3150800030C80B500AF0D4B1B78DBB21A460C4B53F875
S3150800031C2230002B0DD0094B1B78DBB21A46084B42
S3150800032C53F8223098470346012B02D0034B03227D
S3150800033C5A7000F0C9F800BF80BD00BF4800002401
S3150800034C0C00002480B582B000AF0123FB7100F0CD
S3150800035C2FFB044B01225A70FB7918460837BD4609
S3150800036C80BD00BF4800002480B5ADF5047D00AF04
S3150800037C012387F80F3207F50473A3F58673002259
S3150800038C1A600433FC220021184605F04BF807F5D1
S3150800039C0473A3F5037300221A600433FC220021AC
S315080003AC184605F03FF80023C7F8083210E0D7F8CE
S315080003BC0832D9B207F50473A3F58672D7F8083252
S315080003CC13440A461A70D7F808320133C7F80832AC
S315080003DCD7F80832FF2BEADD07F582734FF48072E3
S315080003EC1946002000F040FA0346012B03D00023DF
S315080003FC87F80F322FE03B1D4FF480721946002008
S3150800040C00F084FA0346012B03D0002387F80F3239
S3150800041C21E00023C7F8043219E007F50473A3F5A5
S3150800042C8672D7F8043213441A7807F50473A3F5C1
S3150800043C0371D7F804320B441B789A4202D0002376
S3150800044C87F80F32D7F804320133C7F80432D7F8D5
S3150800045C0432FF2BE1DD054B02225A7097F80F3256
S3150800046C184607F50477BD4680BD00BF4800002432
S3150800047C80B584B000AF0023FB7300F011F9034676
S3150800048C012B0FD172B600BF71B600BF084B1B68A3
S3150800049CBB60084B1B687B607B6883F3088800BFCE
S315080004ACBB689847FB7B18461037BD4680BD00BF16
S315080004BC040002080000020880B483B000AF0023D1
S315080004CCFB7100BFFDE7000080B483B000AF0023CA
S315080004DC7B6023E0174B1B78D9B217487A6813460A
S315080004EC5B00134403441B78994214D1114B5B7877
S315080004FCD9B211487A6813465B0013440344023395
S3150800050C1B78994207D10C4B1A790A4B1A70094B6E
S3150800051C00225A7009E07B6801337B607B68032BE9
S3150800052CD8D9044B00225A7000BF0C37BD465DF86B
S3150800053C047B7047480000240000002480B596B060
S3150800054C00AF0346FB7107F1080350220021184639
S3150800055C04F068FF0023BB600023FB60FB793B615A
S3150800056C01237B6100237B6200237B6300233B64AE
S3150800057C0023FB6407F1080341F288321946064842
S3150800058C01F08FFB0346002B01D0FF2300E001236B
S3150800059C18465837BD4680BD4C00002480B596B029
S315080005AC00AF0346FB7107F10803502200211846D9
S315080005BC04F038FF0023BB600023FB60FB793B612A
S315080005CC03237B6100237B6200237B6300233B644C
S315080005DC0023FB6407F1080341F2883219460648E2
S315080005EC01F05FFB0346002B01D0FF2300E001233B
S315080005FC18465837BD4680BD4C00002480B596B0C9
S3150800060C00AF03463960FB711346BB7107F108034B
S3150800061C50220021184604F005FF0023BB60012375
S3150800062C7B610023BB610023FB61FB793B614FF4C3
S3150800063C80737B624FF40053BB620023FB62FB7929
S3150800064C3B6200237B634FF080733B640023BB64DF
S3150800065CBB797B640023FB6400233B6500237B6525
S3150800066C07F1080341F2883219460C4801F019FBC8
S3150800067C0346002B01D0FF230BE041F28832396880
S3150800068C064801F00EFC0346002B01D0FF2300E0C0
S3150800069C012318465837BD4680BD00BF4C000024C0
S315080006AC80B596B000AF07F1080350220021184612
S315080006BC04F0B8FE3B4600221A605A600223BB605F
S315080006CC0023FB6003237B610023BB610023FB61D2
S315080006DC02233B614FF440737B624FF40053BB62B9
S315080006EC0023FB6200237B634FF040733B640023BB
S315080006FCBB640023FB644FF000533B6500237B650A
S3150800070C07F1080341F288321946244801F0C9FA60
S3150800071C0346002B01D0FF233CE00123BB600023DA
S3150800072CFB6003237B610023BB610023FB61EB2386
S3150800073C3B614FF440737B624FF40053BB6200235A
S3150800074CFB6200237B634FF040733B640023BB645E
S3150800075C0623FB6400233B6500237B6507F108032E
S3150800076C41F2883219460D4801F09BFA0346002BD4
S3150800077C01D0FF230EE000233B60FF237B603B4642
S3150800078C1946064801F030FC0346002B01D0FF231E
S3150800079C00E0012318465837BD4680BD4C0000249E
S315080007AC80B586B000AF2E4801F054FA3B460022BD
S315080007BC1A605A609A60DA601A615A61284B294A9B
S315080007CC1A60274B01225A60254B00229A60244B4B
S315080007DC4FF00072DA60224B17221A61204B022264
S315080007EC5A611F4B00229A611D4B0022DA611C4B81
S315080007FC00221A621A4B04225A62194B4FF0804295
S3150800080C9A62174B0022DA62154B00221A63144BB4
S3150800081C08225A63124BFF229A63114B0022DA63A1
S3150800082C0F4801F05BF90346002B01D0FF2313E0B8
S3150800083C01233B600123BB604FF00113FB603B4671
S3150800084C41F288321946064801F02CFC0346002B67
S3150800085C01D0FF2300E0012318461837BD4680BD9A
S3150800086C4C0000240050005280B598B000AFF860D8
S3150800087CB9607A6007F1100350220021184604F07B
S3150800088CD1FD00233B6100237B610223BB6103235B
S3150800089CFB6100233B6200237B62FB68BB624FF45F
S315080008AC4073FB624FF400533B6300237B630023C6
S315080008BCFB634FF04073BB647B68FB6400233B65AA
S315080008CC00237B650023BB650023FB6507F110033A
S315080008DC41F2883219460C4801F0E3F90346002B1D
S315080008EC01D0FF230BE041F28832B968064801F0C3
S315080008FC65FA0346002B01D0FF2300E001231846B6
S3150800090C6037BD4680BD00BF4C00002480B598B04A
S3150800091C00AFF860B9607A6007F110035022002125
S3150800092C184604F07FFD00233B6100237B610323FB
S3150800093CFB6100233B6200237B62EB23BB614FF414
S3150800094C4073FB624FF400533B6300237B63FB68E5
S3150800095CBB620023FB634FF04073BB6400233B650B
S3150800096C7B68FB6406237B650023BB650023FB655C
S3150800097C07F1100341F2883219460C4801F091F937
S3150800098C0346002B01D0FF230BE041F28832B968ED
S3150800099C064801F086FA0346002B01D0FF2300E037
S315080009AC012318466037BD4680BD00BF4C000024A5
S315080009BC80B584B000AF6620FFF7C0FD0346FB7315
S315080009CC9920FFF7BBFD0346FB736620FFF7E6FD90
S315080009DC0346FB739920FFF7E1FD0346FB730120E1
S315080009EC00F052FCFB7B012B19D13B1D0922194641
S315080009FC9F20FFF703FE0346FB737B795D2B0ED115
S31508000A0CBFF34F8F00BF3520FFF798FD0346FB73E6
S31508000A1CFB7B012B03D1FFF7C3FE0346FB73FB7B62
S31508000A2C18461037BD4680BD80B485B000AF214B43
S31508000A3CD3F8E0301F4A43F08003C2F8E0301D4B70
S31508000A4CD3F8E03003F08003FB60FB68194BD3F84E
S31508000A5CE030184A43F00103C2F8E030154BD3F8DE
S31508000A6CE03003F00103BB60BB68124BD3F8E030EF
S31508000A7C104A43F00203C2F8E0300E4BD3F8E030CC
S31508000A8C03F002037B607B680A4BD3F8E030094A13
S31508000A9C43F01003C2F8E030064BD3F8E03003F00D
S31508000AAC10033B603B6800BF1437BD465DF8047BFA
S31508000ABC704700BF0044025880B500AF00F07EF8BE
S31508000ACC00F050FB00F00CF861B600BF62B600BF30
S31508000ADCFFF7AAFF00F0B8F8FFF712FCFCE70000D6
S31508000AEC80B59CB000AF07F124034C2200211846B0
S31508000AFC04F098FC3B1D20220021184604F092FCB9
S31508000B0C042002F027FA00233B602B4B9B692A4AE8
S31508000B1C23F440439361284B9B6903F440433B60A1
S31508000B2C3B6800BF244B9B6903F40053B3F5005F85
S31508000B3CF8D101237B624FF48033BB620223BB647A
S31508000B4C0223FB6402233B6514237B650123BB65E7
S31508000B5C0223FB6502233B660C237B660023BB66DC
S31508000B6C0023FB6607F12403184602F04DFA0346E8
S31508000B7C002B01D000F061F83F237B600323BB6098
S31508000B8C0023FB6000233B6140237B614023BB6150
S31508000B9C4FF48063FB6140233B623B1D03211846DF
S31508000BAC02F00CFE0346002B01D000F046F800BFFD
S31508000BBC7037BD4680BD00BF0048025880B584B06A
S31508000BCC00AF3B4600221A605A609A60DA6000F061
S31508000BDC63FC01233B7000237B7000237B601F237F
S31508000BEC3B7287237B720023BB720023FB720123A3
S31508000BFC3B7301237B730023BB730023FB733B46B8
S31508000C0C184600F081FC01237B704FF010437B6083
S31508000C1C16233B7200237B720323FB7200233B7360
S31508000C2C00237B733B46184600F06EFC042000F04C
S31508000C3C4BFC00BF1037BD4680BD80B400AF72B602
S31508000C4C00BF00BFFDE7000080B586B000AF3B468D
S31508000C5C00221A605A609A60DA601A615A61284B47
S31508000C6C284A1A60264B01225A60254B00229A60A4
S31508000C7C234B4FF00072DA60214B17221A61204B76
S31508000C8C02225A611E4B00229A611D4B0022DA6120
S31508000C9C1B4B00221A621A4B4FF480725A62184B7D
S31508000CAC00229A62164B0022DA62154B00221A634E
S31508000CBC134B08225A63124B00229A63104B0022DC
S31508000CCCDA630F4800F00AFF0346002B01D0FFF742
S31508000CDCB4FF01233B600123BB604FF00113FB609B
S31508000CEC3B4641F288321946054801F0DBF90346C2
S31508000CFC002B01D0FFF7A1FF00BF1837BD4680BDFA
S31508000D0C4C0000240050005280B5BCB000AF78608F
S31508000D1C07F1DC0300221A605A609A60DA601A61DD
S31508000D2C07F12003B8220021184604F07BFB7B68E8
S31508000D3C1B68674A934240F0C7804FF000724FF029
S31508000D4C0003C7E908230023FB6607F120031846AE
S31508000D5C03F064F80346002B01D0FFF76EFF5D4BDA
S31508000D6CD3F8D4305B4A43F40013C2F8D430594B49
S31508000D7CD3F8D43003F40013FB61FB69554BD3F855
S31508000D8CD430544A43F48043C2F8D430514BD3F888
S31508000D9CD43003F48043BB61BB694E4BD3F8E030C7
S31508000DAC4C4A43F00103C2F8E0304A4BD3F8E03022
S31508000DBC03F001037B617B69464BD3F8E030454A67
S31508000DCC43F00203C2F8E030424BD3F8E03003F0AC
S31508000DDC02033B613B693F4BD3F8E0303D4A43F095
S31508000DEC1003C2F8E0303B4BD3F8E03003F01003A5
S31508000DFCFB60FB684023C7F8DC300223C7F8E030F9
S31508000E0C0023C7F8E4300323C7F8E8300623C7F8ED
S31508000E1CEC3007F1DC0319462F4800F0B5FB8023AC
S31508000E2CC7F8DC300223C7F8E0300023C7F8E430F3
S31508000E3C0323C7F8E8300A23C7F8EC3007F1DC03BC
S31508000E4C1946254800F0A0FB0323C7F8DC3002231B
S31508000E5CC7F8E0300023C7F8E4300323C7F8E830B6
S31508000E6C0423C7F8EC3007F1DC0319461B4800F0DD
S31508000E7C8BFB0423C7F8DC300223C7F8E0300023C9
S31508000E8CC7F8E4300323C7F8E8300923C7F8EC3071
S31508000E9C07F1DC031946114800F076FB4FF40063A2
S31508000EACC7F8DC300223C7F8E0300023C7F8E43073
S31508000EBC0323C7F8E8300B23C7F8EC3007F1DC033B
S31508000ECC1946074800F060FB00BFF037BD4680BDE9
S31508000EDC0050005200440258000002580004025800
S31508000EEC0010025880B582B000AF78607B681B682A
S31508000EFC114A93421CD1114BD3F8D4300F4A23F420
S31508000F0C0013C2F8D4300D4BD3F8D4300B4A23F463
S31508000F1C8043C2F8D430C021094800F0DDFC072113
S31508000F2C084800F0D9FC4FF40061074800F0D4FCDF
S31508000F3C00BF0837BD4680BD005000520044025819
S31508000F4C00000258000402580010025880B483B0FE
S31508000F5C00AF0A4BD3F8F430084A43F00203C2F840
S31508000F6CF430064BD3F8F43003F002037B607B684D
S31508000F7C00BF0C37BD465DF8047B70470044025829
S31508000F8C80B400AF00BFFDE780B400AF00BFFDE73B
S31508000F9C80B400AF00BFFDE780B400AF00BFFDE72B
S31508000FAC80B400AF00BFFDE780B400AF00BFBD46FC
S31508000FBC5DF8047B704780B400AF00BFBD465DF892
S31508000FCC047B704780B400AF00BFBD465DF8047B58
S31508000FDC704780B500AF00F037F900BF80BD000040
S31508000FEC80B400AF344BD3F88830334A43F47003DB
S31508000FFCC2F88830314B1B6803F00F03062B07D851
S3150800100C2E4B1B6823F00F032C4A43F0070313607F
S3150800101C2B4B1B682A4A43F001031360284B00220A
S3150800102C1A61274B1A682649264B13400B60234B2B
S3150800103C1B6803F00803002B07D0204B1B6823F012
S3150800104C0F031E4A43F0070313601D4B00229A61D7
S3150800105C1B4B0022DA611A4B00221A62184B1A4AE9
S3150800106C9A62174B194ADA62154B194A1A63144BCA
S3150800107C00225A63124B164A9A63114B0022DA6302
S3150800108C0F4B134A1A640E4B00225A640C4B1B68FE
S3150800109C0B4A23F480231360094B00221A660D4B66
S315080010AC43F2D2021A60044B4FF000629A6000BFFA
S315080010BCBD465DF8047B704700ED00E00020005249
S315080010CC004402587FEDF6EA000202020000FF0116
S315080010DC800201010040005280B400AF0A4BDB6865
S315080010EC23F00603084A43F00203D36000BF064BFD
S315080010FC5B6803F40053002BF9D000BF00BFBD4654
S3150800110C5DF8047B704700BF00480258DFF838D0FA
S3150800111CFFF7E2FFFFF764FF0C480D490D4A002361
S3150800112C02E0D458C4500433C4188C42F9D30A4A82
S3150800113C0A4C002301E013600432A242FBD304F0EC
S3150800114C79F9FFF7B9FC7047000005240000002464
S3150800115C2C000024B85400082C000024AC000024F1
S3150800116CFEE7000080B582B000AF032000F062F9FC
S3150800117C02F0DAFC0246154B9B691B0A03F00F03B7
S3150800118C1349CB5C03F01F0322FA03F37B600F4B66
S3150800119C9B6903F00F030E4AD35C03F01F037A68AE
S315080011AC22FA03F30B4A13600B4A7B6813600F2071
S315080011BC00F014F80346002B01D0012302E0FFF7D8
S315080011CCC5FE002318460837BD4680BD00440258A4
S315080011DCA0540008200000241C00002480B582B00E
S315080011EC00AF7860154B1B78002B01D1012321E049
S315080011FC134B1A68114B1B7819464FF47A73B3FBC9
S3150800120CF1F3B2FBF3F3184600F039F90346002B59
S3150800121C01D001230EE07B680F2B0AD800227968CF
S3150800122C4FF0FF3000F011F9064A7B681360002373
S3150800123C00E0012318460837BD4680BD2800002467
S3150800124C1C0000242400002480B400AF064B1B7835
S3150800125C1A46064B1B681344044A136000BFBD4666
S3150800126C5DF8047B704700BF28000024A800002402
S3150800127C80B400AF034B1B681846BD465DF8047B6B
S3150800128C704700BFA800002480B584B000AF786012
S3150800129CFFF7EEFFB8607B68FB60FB68B3F1FF3FB6
S315080012AC05D00A4B1B781A46FB681344FB6000BF33
S315080012BCFFF7DEFF0246BB68D31AFA689A42F7D8DC
S315080012CC00BF00BF1037BD4680BD00BF28000024F4
S315080012DC80B485B000AF78607B6803F00703FB60C9
S315080012EC0B4BDB68BB60BA684FF6FF031340BB6059
S315080012FCFB681A02BB681A43064B1343BB60044AC5
S3150800130CBB68D36000BF1437BD465DF8047B7047D5
S3150800131C00ED00E00000FA0580B400AF044BDB6872
S3150800132C1B0A03F007031846BD465DF8047B704795
S3150800133C00ED00E080B483B000AF03463960FB8053
S3150800134CB7F90630002B0ADB3B68DAB20C49B7F959
S3150800135C06301201D2B20B4483F800230AE03B682C
S3150800136CDAB20849FB8803F00F03043B1201D2B228
S3150800137C0B441A7600BF0C37BD465DF8047B7047E4
S3150800138C00E100E000ED00E080B489B000AFF86041
S3150800139CB9607A60FB6803F00703FB61FB69C3F16C
S315080013AC0703042B28BF0423BB61FB690433062BF4
S315080013BC02D9FB69033B00E000237B614FF0FF3247
S315080013CCBB6902FA03F3DA43BB681A407B699A4095
S315080013DC4FF0FF317B6901FA03F3D9437B680B4065
S315080013EC134318462437BD465DF8047B7047000046
S315080013FC80B582B000AF78607B68013BB3F1807F23
S3150800140C01D301230FE00A4A7B68013B53600F2185
S3150800141C4FF0FF30FFF78EFF054B00229A60044B06
S3150800142C07221A60002318460837BD4680BD00BF40
S3150800143C10E000E080B582B000AF78607868FFF7FE
S3150800144C47FF00BF0837BD4680BD80B586B000AFE4
S3150800145C0346B9607A60FB81FFF75EFF78617A68AC
S3150800146CB9687869FFF790FF0246B7F90E3011464E
S3150800147C1846FFF75FFF00BF1837BD4680BD80B51D
S3150800148C82B000AF78607868FFF7B2FF034618465B
S3150800149C0837BD4680BD000080B400AFBFF35F8F30
S315080014AC00BF074B5B6A064A23F480335362054B2D
S315080014BC00225A6000BFBD465DF8047B704700BF2A
S315080014CC00ED00E090ED00E080B483B000AF7860EA
S315080014DC0B4A7B6843F0010353600A4B5B6A094A63
S315080014EC43F480335362BFF34F8F00BFBFF36F8F44
S315080014FC00BF00BF0C37BD465DF8047B704700BFC4
S3150800150C90ED00E000ED00E080B483B000AF7860A9
S3150800151C7B685A781B4B9A601A4B1B69194A23F03D
S3150800152C01031361174A7B685B68D3607B681B7B76
S3150800153C1A077B68DB7A1B061A437B689B7ADB04E3
S3150800154C1A437B685B7B9B041A437B689B7B5B0417
S3150800155C1A437B68DB7B1B041A437B685B7A1B028A
S3150800156C1A437B681B7A5B0013437A681278114618
S3150800157C044A0B43136100BF0C37BD465DF8047B68
S3150800158C704700BF90ED00E080B489B000AF78607A
S3150800159C39600023FB61864B7B618CE13B681A68DA
S315080015AC0121FB6901FA03F313403B613B69002BEC
S315080015BC00F07E813B685B6803F00303012B05D0C2
S315080015CC3B685B6803F00303022B30D17B689B688E
S315080015DCBB61FB695B00032202FA03F3DB43BA69BE
S315080015EC1340BB613B68DA68FB695B0002FA03F3DC
S315080015FCBA691343BB617B68BA699A607B685B6896
S3150800160CBB610122FB6902FA03F3DB43BA69134097
S3150800161CBB613B685B681B0903F00102FB6902FAB4
S3150800162C03F3BA691343BB617B68BA695A603B68B2
S3150800163C5B6803F00303032B17D07B68DB68BB617D
S3150800164CFB695B00032202FA03F3DB43BA69134016
S3150800165CBB613B689A68FB695B0002FA03F3BA69DB
S3150800166C1343BB617B68BA69DA603B685B6803F055
S3150800167C0303022B23D1FB69DA087B68083253F87B
S3150800168C2230BB61FB6903F007039B000F2202FAA9
S3150800169C03F3DB43BA691340BB613B681A69FB6900
S315080016AC03F007039B0002FA03F3BA691343BB6101
S315080016BCFB69DA087B680832B96943F822107B683B
S315080016CC1B68BB61FB695B00032202FA03F3DB436D
S315080016DCBA691340BB613B685B6803F00302FB699C
S315080016EC5B0002FA03F3BA691343BB617B68BA69F8
S315080016FC1A603B685B6803F44033002B00F0D88013
S3150800170C2C4BD3F8F4302B4A43F00203C2F8F430CE
S3150800171C284BD3F8F43003F00203FB60FB68264A27
S3150800172CFB699B08023352F82330BB61FB6903F053
S3150800173C03039B000F2202FA03F3DB43BA69134037
S3150800174CBB617B681D4A93424AD07B681C4A93420C
S3150800175C2BD07B681B4A934225D07B681A4A934246
S3150800176C1FD07B68194A934219D07B68184A934252
S3150800177C13D07B68174A93420DD07B68164A93425E
S3150800178C07D07B68154A934201D1092329E00A231D
S3150800179C27E0072325E0062323E0052321E004237D
S315080017AC1FE003231DE002231BE0012319E000BF01
S315080017BC80000058004402580004005800000258E3
S315080017CC0004025800080258000C0258001002586F
S315080017DC0014025800180258001C0258002402581B
S315080017EC0023FA6902F0030292009340BA69134384
S315080017FCBB613849FB699B080233BA6941F8232057
S3150800180C4FF0B0431B68BB613B69DB43BA691340B5
S3150800181CBB613B685B6803F48013002B03D0BA6981
S3150800182C3B691343BB614FF0B042BB6913604FF081
S3150800183CB0435B68BB613B69DB43BA691340BB6168
S3150800184C3B685B6803F40013002B03D0BA693B6949
S3150800185C1343BB614FF0B042BB6953607B695B684D
S3150800186CBB613B69DB43BA691340BB613B685B6888
S3150800187C03F40033002B03D0BA693B691343BB61ED
S3150800188C7B69BA695A607B691B68BB613B69DB4338
S3150800189CBA691340BB613B685B6803F48033002B61
S315080018AC03D0BA693B691343BB617B69BA691A6091
S315080018BCFB690133FB613B681A68FB6922FA03F37F
S315080018CC002B7FF46BAE00BF00BF2437BD465DF816
S315080018DC047B70470004005880B487B000AF78606A
S315080018EC396000237B61724B3B61D3E001227B6933
S315080018FC02FA03F33A681340FB60FB68002B00F00E
S3150800190CC6806C4A7B699B08023352F82330BB604D
S3150800191C7B6903F003039B000F2202FA03F3BA68F0
S3150800192C1340BB607B68644A934231D07B68634A38
S3150800193C93422BD07B68624A934225D07B68614AD6
S3150800194C93421FD07B68604A934219D07B685F4AE2
S3150800195C934213D07B685E4A93420DD07B685D4AEE
S3150800196C934207D07B685C4A934201D1092310E065
S3150800197C0A230EE007230CE006230AE0052308E0F9
S3150800198C042306E0032304E0022302E0012300E01B
S3150800199C00237A6902F0030292009340BA689A42CD
S315080019AC36D13B691A68FB68DB431A403B691A60F7
S315080019BC3B695A68FB68DB431A403B695A604FF02F
S315080019CCB0435A68FB68DB434FF0B04113404B6099
S315080019DC4FF0B0431A68FB68DB434FF0B041134035
S315080019EC0B607B6903F003039B000F2202FA03F3D7
S315080019FCBB60304A7B699B08023352F82310BB68DC
S31508001A0CDA432C487B699B080A40023340F82320AA
S31508001A1C7B681A687B695B00032101FA03F31A4396
S31508001A2C7B681A607B69DA087B68083253F82210DF
S31508001A3C7B6903F007039B000F2202FA03F3DB43CF
S31508001A4C7A69D20819407B68083243F822107B68F9
S31508001A5CDA687B695B00032101FA03F3DB431A405E
S31508001A6C7B68DA607B685A6801217B6901FA03F3A3
S31508001A7CDB431A407B685A607B689A687B695B0013
S31508001A8C032101FA03F3DB431A407B689A607B69EE
S31508001A9C01337B613A687B6922FA03F3002B7FF4E6
S31508001AAC25AF00BF00BF1C37BD465DF8047B7047E9
S31508001ABC8000005800040058000002580004025820
S31508001ACC00080258000C025800100258001402585C
S31508001ADC00180258001C02580024025880B586B01B
S31508001AEC02AF78600023FB73FFF7C2FBB8607B6814
S31508001AFC002B02D10123FB73A5E07B6800225A65F3
S31508001B0C7B681B6D002B40F09E807868FFF7FCF80D
S31508001B1C41F28831786800F0B5FA7B681B689A68D8
S31508001B2C4B4B13407A68D1687A681269013A1204E9
S31508001B3C11437A685269013A120211437A68526B58
S31508001B4C11437A68D26911437A6812680B43936019
S31508001B5C7B681B68DB6823F4E0217B681A6A7B6860
S31508001B6C1B680A43DA607B681B6B19047B689A6BE3
S31508001B7C7B681B680A431A617B681B687A68D26B98
S31508001B8C5A617B681B681B6823F4F8517B685B6891
S31508001B9C013B1A027B681B680A431A607B689B6DBB
S31508001BAC0093BB6800222021786800F067FF034683
S31508001BBCFB73FB7B002B46D17B681B68DB6823F029
S31508001BCCFF017B685B6A5A1E7B681B680A43DA60EE
S31508001BDC7B681B681B6823F040017B689A687B68E6
S31508001BEC1B680A431A607B681B68D3F8083123F014
S31508001BFCA0417B689A6A7B68DB6A1A437B681B6818
S31508001C0C0A43C3F808217B681B681A687B681B683B
S31508001C1C42F001021A607B689B69022B07D17B682C
S31508001C2C1B689A687B681B6842F002029A607B689C
S31508001C3CDB68B3F1806F03D17B6801221A6502E079
S31508001C4C7B6802221A65FB7B18461037BD4680BD99
S31508001C5CF4F8E0F880B584B000AF78600023FB7325
S31508001C6C7B68002B02D10123FB7315E07B681B688C
S31508001C7C1A687B681B6822F001021A607B681B686D
S31508001C8C9A687B681B6822F002029A607868FFF7EC
S31508001C9C29F97B6800221A65FB7B18461037BD4666
S31508001CAC80BD80B58AB002AFF860B9607A60FFF77C
S31508001CBCDFFAB861BB689B6B002BFB681B6D7B61FD
S31508001CCC7B69022B04D1FB68DB68B3F1806F15D1F5
S31508001CDC7B69142B07D1BB681B68022B0ED0BB681B
S31508001CEC1B68032B0AD07B69242B5BD1BB681B684A
S31508001CFC012B03D0BB681B68032B53D17B6800935D
S31508001D0CBB6900222021F86800F0B8FE0346FB7771
S31508001D1CFB7F002B4CD1FB6800225A65B968F86822
S31508001D2C00F0E4FE0346FB77FB7F002B40D1BB6833
S31508001D3C9B6B002B0ED17B680093BB690122022199
S31508001D4CF86800F09BFE0346FB77FB681B680222CB
S31508001D5C5A622DE0BB681B68002B03D1FB68042272
S31508001D6C1A6525E0BB681B68012B0BD1FB681B6D3C
S31508001D7C242B03D1FB6804221A6519E0FB6814228C
S31508001D8C1A6515E0BB681B68022B11D1FB681B6D25
S31508001D9C142B03D1FB6804221A6509E0FB6824227C
S31508001DAC1A6505E00123FB77FB6810225A6500E0EB
S31508001DBC00BFFB7F18462037BD4680BD80B58AB06C
S31508001DCC02AFF860B9607A60FFF752FAB861FB683F
S31508001DDC1B6850337B61BB68002B05D10123FB774D
S31508001DECFB6808225A6557E0FB681B6D042B4ED11D
S31508001DFCFB681B681B6C5A1CFB689A64FB689A6C1C
S31508001E0CFB685A64FB68BA681A64FB681B681A682C
S31508001E1CFB681B6822F040521A607B680093BB690A
S31508001E2C01220421F86800F029FE0346FB77FB7FA4
S31508001E3C002B13D1FB681B6C1A787B691A70FB682C
S31508001E4C1B6C5A1CFB681A64FB689B6C5A1EFB6855
S31508001E5C9A64FB689B6C002BDFD100E000BFFB7F0C
S31508001E6C002B19D17B680093BB6901220221F86803
S31508001E7C00F004FE0346FB77FB7F002B0CD1FB68B6
S31508001E8C1B6802225A62FB6802221A6504E00123C7
S31508001E9CFB77FB6810225A65FB7F18462037BD4630
S31508001EAC80BD80B58CB002AFF860B9607A60FFF778
S31508001EBCDFF93862FB681B685033FB61FB681B68EB
S31508001ECC9B6CBB61FB681B68D3F810317B61BB68E4
S31508001EDC002B06D1012387F82730FB6808225A65A0
S31508001EEC7CE0FB681B6D042B72D1FB681B681B6CB2
S31508001EFC5A1CFB689A64FB689A6CFB685A64FB6804
S31508001F0CBA681A64FB681B681B6823F04052FB68A6
S31508001F1C1B6842F080521A60FB68DB68B3F1806F6D
S31508001F2C04D1FB681B68BA699A6411E0FB681B68E4
S31508001F3CD3F8003103F4E063002B04D0FB681B686C
S31508001F4CBA699A6404E0FB681B687A69C3F81021BD
S31508001F5C7B6800933B6A01220621F86800F08EFD27
S31508001F6C034687F8273097F82730002B14D1FB68DF
S31508001F7C1B6CFA691278D2B21A70FB681B6C5A1C65
S31508001F8CFB681A64FB689B6C5A1EFB689A64FB68B0
S31508001F9C9B6C002BDCD100E000BF97F82730002B98
S31508001FAC1CD17B6800933B6A01220221F86800F079
S31508001FBC65FD034687F8273097F82730002B0DD197
S31508001FCCFB681B6802225A62FB6802221A6505E046
S31508001FDC012387F82730FB6810225A6597F82730B3
S31508001FEC18462837BD4680BD80B586B002AF7860E6
S31508001FFC3960FFF73DF9B8607B681B6D042B34D14B
S3150800200C7B689B6D0093BB6800222021786800F0E2
S3150800201C35FD0346FB73FB7B002B2BD17B68882293
S3150800202C1A653B681B68082B11D17B681B683A68D4
S3150800203C5268C3F830217B681B6810225A627B6889
S3150800204C1B681A687B681B6842F480121A607B68E6
S3150800205C1B681A680A4B13403A6812681A437B685D
S3150800206C1B6842F040521A6004E00123FB737B683C
S3150800207C10225A65FB7B18461037BD4680BD00BF3B
S3150800208CF7FFFFCF80B483B000AF786039607B6808
S3150800209C3A689A65002318460C37BD465DF8047BEA
S315080020AC7047000080B594B000AFF860B9607A60EC
S315080020BC002387F84F30002387F84630FB681B68E7
S315080020CC9D4A934205D10023BB64012387F845300A
S315080020DC04E00123BB64002387F84530002387F806
S315080020EC47301DE097F847300133D8B297F84720A8
S315080020FC07F1140113465B001344DB000B44194625
S3150800210C00F06EFE0346002B05D0012387F84F30EE
S3150800211CFB6808225A6597F84730013387F8473029
S3150800212C97F84730012BDDD997F84F30002B40F044
S3150800213C9984814B1B6803F00103002B0BD07E4B53
S3150800214C1B687D4A23F00103136097F8463043F069
S3150800215C010387F84630794B1B6803F00103002B03
S3150800216C0BD0764B1B68754A23F00103136097F85E
S3150800217C463043F0020387F846307149BA6C134669
S3150800218C5B001344DB0050333B44343B1B68013B78
S3150800219C9B000B4459686A48BA6C13465B00134497
S315080021ACDB0050333B44343B1B68013B21F4807203
S315080021BC9B0003445A60624B1B6803F00103002B17
S315080021CC00F0C0805E4B1B685D4A23F00103136068
S315080021DC97F84530012B40F06281594997F845200C
S315080021EC13465B001344DB0050333B443C3B1B68F3
S315080021FC013B9B000B445968514897F845201346F8
S3150800220C5B001344DB0050333B443C3B1B68013BEF
S3150800221C41F002029B0003445A6097F84520134686
S3150800222C5B001344DB0050333B44383B1B68002BE4
S3150800223C1FD0434997F8452013465B001344DB002F
S3150800224C50333B44383B1B68013B9B000B44596895
S3150800225C3B4897F8452013465B001344DB00503384
S3150800226C3B44383B1B68013B41F020029B0003446E
S3150800227C5A6097F8452013465B001344DB0050332D
S3150800228C3B44303B1B68002B23D02D4997F845203F
S3150800229C13465B001344DB0050333B44303B1B684E
S315080022AC013B03F001039B000B445968244897F83B
S315080022BC452013465B001344DB0050333B44303B4C
S315080022CC1B68013B03F0010341F480229B00034485
S315080022DC5A6097F8452013465B001344DB005033CD
S315080022EC3B442C3B1B68002B00F0D980144997F80B
S315080022FC452013465B001344DB0050333B442C3B10
S3150800230C1B68013B03F001039B000B4459680C48FE
S3150800231C97F8452013465B001344DB0050333B44C7
S3150800232C2C3B1B68013B03F0010341F080629B00C8
S3150800233C03445A60B3E000BF0050005200A000529C
S3150800234C00B40052BA6C13465B001344DB005033DE
S3150800235C3B443C3B1B68002B00F0A1809549BA6CAA
S3150800236C13465B001344DB0050333B443C3B1B6871
S3150800237C013B9B000B4459688E48BA6C13465B00AC
S3150800238C1344DB0050333B443C3B1B68013B21F0B8
S3150800239C01029B0003445A60BA6C13465B00134453
S315080023ACDB0050333B44383B1B68002B1DD081495E
S315080023BCBA6C13465B001344DB0050333B44383B82
S315080023CC1B68013B9B000B4459687A48BA6C134648
S315080023DC5B001344DB0050333B44383B1B68013B22
S315080023EC21F010029B0003445A60BA6C13465B003A
S315080023FC1344DB0050333B44303B1B68002B21D085
S3150800240C6C49BA6C13465B001344DB0050333B44EF
S3150800241C303B1B68013B03F001039B000B445968D6
S3150800242C6448BA6C13465B001344DB0050333B44D8
S3150800243C303B1B68013B03F0010321F480329B00FF
S3150800244C03445A60BA6C13465B001344DB005033E2
S3150800245C3B442C3B1B68002B21D05649BA6C1346BF
S3150800246C5B001344DB0050333B442C3B1B68013B9D
S3150800247C03F001039B000B4459684E48BA6C13468B
S3150800248C5B001344DB0050333B442C3B1B68013B7D
S3150800249C03F0010321F080729B0003445A60BB6869
S315080024AC196897F8452013465B001344DB00503334
S315080024BC3B443C3B1B6899423CD0BB68996897F8EF
S315080024CC452013465B001344DB0050333B44343B36
S315080024DC1B6899422ED0BB68596897F84520134655
S315080024EC5B001344DB0050333B44383B1B68994272
S315080024FC03D1BB685B68002B1CD1BB68D96897F8FD
S3150800250C452013465B001344DB0050333B44303BF9
S3150800251C1B6899420ED0BB68196997F84520134673
S3150800252C5B001344DB0050333B442C3B1B6899423D
S3150800253C40F00E81BB68196897F8452013465B0076
S3150800254C1344DB0050333B443C3B1B68994233D164
S3150800255CBB68596897F8452013465B001344DB00A3
S3150800256C50333B44383B1B68994225D1BB68D96824
S3150800257C97F8452013465B001344DB0050333B4465
S3150800258C303B1B68994217D1BB68196997F84520E7
S3150800259C13465B001344DB0050333B442C3B1B684F
S315080025AC994209D1034B1B68024A43F00103136095
S315080025BCCEE000BF00B40052BB4997F8452013463D
S315080025CC5B001344DB0050333B443C3B1B68013B2C
S315080025DC9B000B445968B44897F8452013465B0092
S315080025EC1344DB0050333B443C3B1B68013B21F056
S315080025FC01029B0003445A6097F8452013465B007A
S3150800260C1344DB0050333B44383B1B68002B1FD06C
S3150800261CA54997F8452013465B001344DB00503355
S3150800262C3B44383B1B68013B9B000B4459689E484E
S3150800263C97F8452013465B001344DB0050333B44A4
S3150800264C383B1B68013B21F010029B0003445A607F
S3150800265C954997F8452013465B001344DB00503325
S3150800266C3B44343B1B68013B9B000B4459688E4822
S3150800267C97F8452013465B001344DB0050333B4464
S3150800268C343B1B68013B21F480729B0003445A605F
S3150800269C97F8452013465B001344DB0050333B4444
S315080026AC303B1B68002B23D07F4997F845201346EF
S315080026BC5B001344DB0050333B44303B1B68013B47
S315080026CC03F001039B000B445968774897F845209B
S315080026DC13465B001344DB0050333B44303B1B680A
S315080026EC013B03F0010321F480329B0003445A603A
S315080026FC97F8452013465B001344DB0050333B44E4
S3150800270C2C3B1B68002B23D0674997F845201346AA
S3150800271C5B001344DB0050333B442C3B1B68013BEA
S3150800272C03F001039B000B4459685F4897F8452052
S3150800273C13465B001344DB0050333B442C3B1B68AD
S3150800274C013B03F0010321F080729B0003445A609D
S3150800275C554ABB689B68013B9B0013445B6823F492
S3150800276C4072BB6C5B021A434F49BB689B68013BC2
S3150800277C42F480729B000B445A60BB685B695A1E14
S3150800278C494B1B681B0CDBB29A420AD9464B1B6891
S3150800279C23F47F02BB685B69013B1B044249134364
S315080027AC0B60414B1B6803F00103002B00F09A8069
S315080027BC3D4ABB681B68013B9B0013445B6823F0CE
S315080027CC03023949BB681B68013B42F001029B00B6
S315080027DC0B445A60BB685B68002B11D0324ABB6845
S315080027EC5B68013B9B0013445B6823F030022E495F
S315080027FCBB685B68013B42F010029B000B445A60B5
S3150800280CBB68DB6803F48033002B16D0264ABB68FA
S3150800281CDB68013B03F001039B0013445B6823F45C
S3150800282CE0222149BB68DB68013B03F0010342F453
S3150800283C80329B000B445A6019E0BB68DB68002B9E
S3150800284C15D0194ABB68DB68013B03F001039B00F2
S3150800285C13445B6823F0E0621349BB68DB68013BF1
S3150800286C03F0010342F080729B000B445A60BB686C
S3150800287C1B6903F48033002B18D00B4ABB681B6901
S3150800288C013B03F001039B0013445B6823F4E0222D
S3150800289C0549BB681B69013B03F0010342F440324E
S315080028AC9B000B445A60C5E000B40052BB681B6918
S315080028BC002B00F0BF806E4ABB681B69013B03F016
S315080028CC01039B0013445B6823F0E0626849BB680C
S315080028DC1B69013B03F0010342F040729B000B4459
S315080028EC5A60A7E0624ABB681B68013B9B0013440D
S315080028FC5B6823F00302BB6C5B001A435C49BB683C
S3150800290C1B68013B42F001029B000B445A60BB68F2
S3150800291C5B68002B14D0564ABB685B68013B9B006E
S3150800292C13445B6823F03002BB6C5B011A435049B5
S3150800293CBB685B68013B42F010029B000B445A6073
S3150800294CBB68DB6803F48033002B19D0484ABB6894
S3150800295CDB68013B03F001039B0013445B6823F41B
S3150800296CE022BB6C9B041A434149BB68DB68013BFC
S3150800297C03F0010342F480329B000B445A601CE0BE
S3150800298CBB68DB68002B18D0394ABB68DB68013B8F
S3150800299C03F001039B0013445B6823F0E062BB6CF5
S315080029AC9B061A433249BB68DB68013B03F00103FB
S315080029BC42F080729B000B445A60BB681B6903F497
S315080029CC8033002B19D02A4ABB681B69013B03F0DC
S315080029DC01039B0013445B6823F4E022BB6C9B0445
S315080029EC1A432349BB681B69013B03F0010342F4F4
S315080029FC40329B000B445A601CE0BB681B69002BD9
S31508002A0C18D01B4ABB681B69013B03F001039B00EA
S31508002A1C13445B6823F0E062BB6C9B061A431449AB
S31508002A2CBB681B69013B03F0010342F040729B0033
S31508002A3C0B445A6097F8463003F00103002B05D077
S31508002A4C0C4B1B680B4A43F00103136097F846308E
S31508002A5C03F00203002B05D0074B1B68064A43F00C
S31508002A6C0103136097F84F3018465037BD4680BDA2
S31508002A7C00B400520050005200A0005280B584B039
S31508002A8C00AFF860B9603B601346FB711AE0BB698E
S31508002A9CB3F1FF3F16D0FEF7EBFB02463B68D31AA1
S31508002AACBA699A4202D3BB69002B0BD1FB684FF467
S31508002ABC00721A65FB685B6D43F00102FB685A6588
S31508002ACC01230EE0FB681B681A6ABB681340002BCF
S31508002ADC14BF01230023DBB21A46FB799A42D6D1DE
S31508002AEC002318461037BD4680BD000080B489B057
S31508002AFC00AF786039600023FB777B681B681A681F
S31508002B0C7B681B6822F040521A607B689B68002B16
S31508002B1C0AD17B681B681B6823F080013B685A68DE
S31508002B2C7B681B680A431A603B681B68022B14D126
S31508002B3C7B681B6803F5C073BB617B681B6803F570
S31508002B4CC4737B617B681B6803F5C8733B617B6840
S31508002B5C1B6803F5D073FB602CE03B681B68032BE2
S31508002B6C14D17B681B6803F5A073BB617B681B6873
S31508002B7C03F5A4737B617B681B6803F5A8733B613B
S31508002B8C7B681B6803F5B073FB6013E07B681B68F6
S31508002B9C03F58073BB617B681B6803F584737B61E3
S31508002BAC7B681B6803F588733B617B681B6803F5B8
S31508002BBC9073FB603B689A6C3B68DB6C1A43BB6989
S31508002BCC1A603B68DB6A002B12D03B689A6AFB6872
S31508002BDC1A60BB691B6823F47C123B68D96A3B688C
S31508002BEC5B6B19433B681B6B0B431A43BB691A6037
S31508002BFC7B691B6823F01F023B685B6C1A437B6975
S31508002C0C1A603B689B6B002B09D03B681B68002B32
S31508002C1C05D13B68DA6B7B681B68013A1A643B681A
S31508002C2CDB68002B00F095803B68DB69002B53D0E2
S31508002C3C3B689B6B002B1ED0BB691A68644B134010
S31508002C4C3A68D1683A68526911433A68126911436D
S31508002C5C3A68D26911433A68526A11433A68126A59
S31508002C6C11433A68926B11433A68126C0A431A4339
S31508002C7CBB691A6026E0BB691A68564B13403A685A
S31508002C8CD1683A68526911433A68126911433A682D
S31508002C9CD26911433A68526A11433A68126A0A436E
S31508002CAC1A43BB691A607B68DB6AB3F1805F09D18A
S31508002CBC3B685B69082B05D1BB691B6843F000624E
S31508002CCCBB691A603B689A683B691A607B681B6823
S31508002CDC3A6892699A6474E03B689B6B002B15D032
S31508002CECBB691A683C4B13403A68D1683A68526912
S31508002CFC11433A68126911433A68926B11433A6860
S31508002D0C126C0A431A43BB691A601DE0BB691B683F
S31508002D1C23F03F023B68D9683B685B6919433B68FB
S31508002D2C1B690B431A43BB691A607B68DB6AB3F1F0
S31508002D3C805F09D13B685B69082B05D1BB691B68A9
S31508002D4C43F00062BB691A603B689A683B691A6073
S31508002D5C37E03B68DB69002B2ED03B689B6B002B5E
S31508002D6C15D0BB691A681D4B13403A68D1693A6885
S31508002D7C526A11433A68126A11433A68926B1143C4
S31508002D8C3A68126C0A431A43BB691A600EE0BB69AF
S31508002D9C1B6823F47C523B68D9693B685B6A194308
S31508002DAC3B681B6A0B431A43BB691A607B681B6832
S31508002DBC3A6892699A6404E00123FB777B680822D7
S31508002DCC5A65FB7F18462437BD465DF8047B704769
S31508002DDCC0C0FFF0C0C0FFFFC0FFFFF0FFC0FFF090
S31508002DEC80B487B000AF03463960FB710023FB75CE
S31508002DFC00233B61FB79002B05D0FB79022B02D80B
S31508002E0C3B68002B02D10123FB7598E03B68002236
S31508002E1C1A603B6800225A603B6800229A603B683D
S31508002E2C0022DA603B6800221A61FB79022B0BD16F
S31508002E3C464B1B6803F00103002B02D1444B3B6144
S31508002E4C02E04FF400733B610023FB6074E03F4AD9
S31508002E5CFB689B0013445B68BB60BB6803F001030B
S31508002E6C002B0AD0BA683B69534003F00203002BC7
S31508002E7C03D1FB685A1C3B681A60BB6803F0100345
S31508002E8C002B0AD0BA683B69534003F02003002B89
S31508002E9C03D1FB685A1C3B685A60BB6803F4807301
S31508002EAC002B0AD0BA683B69534003F40073002B15
S31508002EBC03D1FB685A1C3B689A60BB6803F48033E1
S31508002ECC002B18D0BA683B69534003F48023002BB7
S31508002EDC11D1BB6803F40033002B06D1FB68013310
S31508002EEC43F480323B68DA6005E0FB68013343F053
S31508002EFC80723B68DA60BB6803F08073002B18D0CD
S31508002F0CBA683B69534003F08063002B11D1BB6848
S31508002F1C03F00073002B06D1FB68013343F48032AF
S31508002F2C3B681A6105E0FB68013343F080723B6825
S31508002F3C1A61FB680133FB60FB68012B87D9FB7DA3
S31508002F4C18461C37BD465DF8047B704700B4005222
S31508002F5C2202040480B584B000AF7860294BDB6884
S31508002F6C03F00703062B0AD0264BDB6803F03F0356
S31508002F7C7A689A4201D001233FE000233DE0214BB9
S31508002F8CDB6823F03F021F497B681343CB60FEF7CF
S31508002F9C6FF9F86009E0FEF76BF90246FB68D31A7D
S31508002FACB3F57A7F01D9012327E0164B5B6803F446
S31508002FBC0053B3F5005FEED17B681E2B08D07B68F7
S31508002FCC2E2B05D07B681D2B02D07B682D2B13D19D
S31508002FDCFEF74EF9F86009E0FEF74AF90246FB6877
S31508002FECD31AB3F57A7F01D9012306E0054BDB68C2
S31508002FFC03F01103112BEFD1002318461037BD46E9
S3150800300C80BD00BF0048025880B58CB000AF786010
S3150800301C7B68002B01D10123C8E37B681B6803F08E
S3150800302C0103002B00F08780884B1B6903F03803DB
S3150800303CFB62864B9B6ABB62FB6A102B07D0FB6A4A
S3150800304C182B10D1BB6A03F00303022B0BD17F4B51
S3150800305C1B6803F40033002B6CD07B685B68002B71
S3150800306C68D10123A2E37B685B68B3F5803F06D180
S3150800307C764B1B68754A43F4803313602EE07B68E5
S3150800308C5B68002B0CD1714B1B68704A23F4803398
S3150800309C13606E4B1B686D4A23F4802313601DE086
S315080030AC7B685B68B3F5A02F0CD1684B1B68674A25
S315080030BC43F480231360654B1B68644A43F48033DE
S315080030CC13600BE0614B1B68604A23F48033136072
S315080030DC5E4B1B685D4A23F4802313607B685B6830
S315080030EC002B13D0FEF7C4F8786208E0FEF7C0F898
S315080030FC02467B6AD31A642B01D9032356E3534B36
S3150800310C1B6803F40033002BF0D014E0FEF7B0F87C
S3150800311C786208E0FEF7ACF802467B6AD31A642B91
S3150800312C01D9032342E3494B1B6803F40033002BF4
S3150800313CF0D100E000BF7B681B6803F00203002B8C
S3150800314C00F08C80414B1B6903F038033B623F4B04
S3150800315C9B6AFB613B6A002B07D03B6A182B37D15D
S3150800316CFB6903F00303002B32D1384B1B6803F0C1
S3150800317C0403002B05D07B68DB68002B01D10123E7
S3150800318C14E3324B1B6823F019027B68DB682F4962
S3150800319C13430B60FEF76CF8786208E0FEF768F8E4
S315080031AC02467B6AD31A022B01D90323FEE2274B6C
S315080031BC1B6803F00403002BF0D0244B5B6823F048
S315080031CCFE427B681B691B06204913434B6045E08E
S315080031DC7B68DB68002B26D01C4B1B6823F0190276
S315080031EC7B68DB68194913430B60FEF741F8786274
S315080031FC08E0FEF73DF802467B6AD31A022B01D982
S3150800320C0323D3E2114B1B6803F00403002BF0D005
S3150800321C0E4B5B6823F0FE427B681B691B060B4949
S3150800322C13434B601AE0094B1B68084A23F0010349
S3150800323C1360FEF71DF878620AE0FEF719F80246E5
S3150800324C7B6AD31A022B03D90323AFE20044025834
S3150800325C964B1B6803F00403002BEED17B681B68A6
S3150800326C03F01003002B6AD0904B1B6903F038034C
S3150800327CBB618E4B9B6A7B61BB69082B07D0BB690C
S3150800328C182B1BD17B6903F00303012B16D1874B33
S3150800329C1B6803F48073002B05D07B68DB69802BD5
S315080032AC01D0012382E2814BDB6823F07C527B68D8
S315080032BC1B6A1B067D491343CB6040E07B68DB69C0
S315080032CC002B23D0794B1B68784A43F08003136094
S315080032DCFDF7CEFF786208E0FDF7CAFF02467B6A67
S315080032ECD31A022B01D9032360E2704B1B6803F433
S315080032FC8073002BF0D06D4BDB6823F07C527B6817
S3150800330C1B6A1B0669491343CB6018E0674B1B689D
S3150800331C664A23F080031360FDF7AAFF786208E07B
S3150800332CFDF7A6FF02467B6AD31A022B01D90323A3
S3150800333C3CE25E4B1B6803F48073002BF0D17B6870
S3150800334C1B6803F00803002B36D07B685B69002BDF
S3150800335C19D0564B5B6F554A43F001035367FDF77B
S3150800336C87FF786208E0FDF783FF02467B6AD31A6B
S3150800337C022B01D9032319E24C4B5B6F03F00203B2
S3150800338C002BF0D018E0494B5B6F484A23F0010339
S3150800339C5367FDF76DFF786208E0FDF769FF024693
S315080033AC7B6AD31A022B01D90323FFE13F4B5B6FD0
S315080033BC03F00203002BF0D17B681B6803F0200393
S315080033CC002B36D07B689B69002B19D0374B1B68B2
S315080033DC364A43F480531360FDF74AFF786208E0D7
S315080033ECFDF746FF02467B6AD31A022B01D9032343
S315080033FCDCE12E4B1B6803F40053002BF0D018E0CD
S3150800340C2A4B1B68294A23F480531360FDF730FFB7
S3150800341C786208E0FDF72CFF02467B6AD31A022B6A
S3150800342C01D90323C2E1214B1B6803F40053002B7B
S3150800343CF0D17B681B6803F00403002B00F0868030
S3150800344C1B4B1B681A4A43F480731360FDF710FF75
S3150800345C786208E0FDF70CFF02467B6AD31A642BE8
S3150800346C01D90323A2E1124B1B6803F48073002BCA
S3150800347CF0D07B689B68012B06D10C4B1B6F0B4A53
S3150800348C43F00103136732E07B689B68002B11D16C
S3150800349C064B1B6F054A23F001031367034B1B6F7F
S315080034AC024A23F00403136721E000BF00440258C4
S315080034BC004802587B689B68052B0CD1834B1B6F05
S315080034CC824A43F004031367804B1B6F7F4A43F011
S315080034DC010313670BE07D4B1B6F7C4A23F001033A
S315080034EC13677A4B1B6F794A23F0040313677B68BF
S315080034FC9B68002B15D0FDF7BBFE78620AE0FDF73A
S3150800350CB7FE02467B6AD31A41F28832934201D936
S3150800351C03234BE16D4B1B6F03F00203002BEED01C
S3150800352C14E0FDF7A5FE78620AE0FDF7A1FE024657
S3150800353C7B6AD31A41F28832934201D9032335E1C7
S3150800354C624B1B6F03F00203002BEED17B685B6AA0
S3150800355C002B00F02A815D4B1B6903F03803182BEE
S3150800356C00F0BA807B685B6A022B40F09580574B5B
S3150800357C1B68564A23F080731360FDF779FE786250
S3150800358C08E0FDF775FE02467B6AD31A022B01D9B1
S3150800359C03230BE14D4B1B6803F00073002BF0D192
S315080035AC4A4B9A6A4A4B13407A68916A7A68D26A85
S315080035BC12010A43454913438B627B681B6B013B1B
S315080035CCC3F308027B685B6B013B5B029BB21A4335
S315080035DC7B689B6B013B1B0403F4FE031A437B6855
S315080035ECDB6B013B1B0603F0FE43384913430B63A5
S315080035FC364BDB6A354A23F00103D362334B5A6BDD
S3150800360C344B13407A68926CD200304913434B639F
S3150800361C2E4BDB6A23F00C027B681B6C2B4913437D
S3150800362CCB622A4BDB6A23F002027B685B6C274968
S3150800363C1343CB62254BDB6A244A43F48033D362AB
S3150800364C224BDB6A214A43F40033D3621F4BDB6AF5
S3150800365C1E4A43F48023D3621C4BDB6A1B4A43F095
S3150800366C0103D362194B1B68184A43F08073136025
S3150800367CFDF7FEFD786208E0FDF7FAFD02467B6A67
S3150800368CD31A022B01D9032390E0104B1B6803F0C5
S3150800369C0073002BF0D088E00C4B1B680B4A23F008
S315080036AC80731360FDF7E4FD786208E0FDF7E0FD32
S315080036BC02467B6AD31A022B01D9032376E0034B05
S315080036CC1B6803F00073002BF0D16EE0004402581F
S315080036DC0CFCFFFF0700FFFF364B9B6A3B61354B23
S315080036EC1B6BFB607B685B6A012B31D03B6903F073
S315080036FC03027B689B6A9A422AD13B691B0903F031
S3150800370C3F027B68DB6A9A4222D1FB68C3F3080244
S3150800371C7B681B6B013B9A421AD1FB685B0A03F068
S3150800372C7F027B685B6B013B9A4211D1FB681B0CD1
S3150800373C03F07F027B689B6B013B9A4208D1FB68BE
S3150800374C1B0E03F07F027B68DB6B013B9A4201D0B0
S3150800375C01232BE0174B5B6BDB08C3F30C033B61B4
S3150800376C7B689B6C3A699A421FD0124BDB6A114AEA
S3150800377C23F00103D362FDF77BFD786200BFFDF7EA
S3150800378C77FD02467B6A9342F9D00A4B5A6B0A4B71
S3150800379C13407A68926CD200064913434B63054B67
S315080037ACDB6A044A43F00103D36200231846303718
S315080037BCBD4680BD004402580700FFFF80B586B0A1
S315080037CC00AF786039607B68002B01D101239CE13E
S315080037DC8A4B1B6803F00F033A689A4210D9874B39
S315080037EC1B6823F00F0285493B6813430B60834B18
S315080037FC1B6803F00F033A689A4201D0012384E14F
S3150800380C7B681B6803F00403002B10D07B681A69CD
S3150800381C7B4B9B6903F070039A4208D9784B9B69DA
S3150800382C23F070027B681B69754913438B617B68AF
S3150800383C1B6803F00803002B10D07B685A69704B81
S3150800384CDB6903F070039A4208D96D4BDB6923F0E8
S3150800385C70027B685B696A491343CB617B681B689A
S3150800386C03F01003002B10D07B689A69644BDB6954
S3150800387C03F4E0639A4208D9614BDB6923F4E062EE
S3150800388C7B689B695E491343CB617B681B6803F0B5
S3150800389C2003002B10D07B68DA69594B1B6A03F09E
S315080038AC70039A4208D9564B1B6A23F070027B6840
S315080038BCDB69534913430B627B681B6803F00203ED
S315080038CC002B10D07B68DA684D4B9B6903F00F030D
S315080038DC9A4208D94A4B9B6923F00F027B68DB682E
S315080038EC474913438B617B681B6803F00103002B64
S315080038FC55D0434B9B6923F470627B689B6840499F
S3150800390C13438B617B685B68022B07D13C4B1B68A6
S3150800391C03F40033002B21D10123F6E07B685B68A6
S3150800392C032B07D1364B1B6803F00073002B15D1FC
S3150800393C0123EAE07B685B68012B07D1304B1B68D7
S3150800394C03F48073002B09D10123DEE02C4B1B6892
S3150800395C03F00403002B01D10123D6E0284B1B6985
S3150800396C23F007027B685B68254913430B61FDF757
S3150800397C7FFC78610AE0FDF77BFC02467B69D31A6B
S3150800398C41F28832934201D90323BEE01C4B1B69D2
S3150800399C03F038027B685B68DB009A42EBD17B68E4
S315080039AC1B6803F00203002B10D07B68DA68144BF3
S315080039BC9B6903F00F039A4208D2114B9B6923F0BB
S315080039CC0F027B68DB680E4913438B610B4B1B6834
S315080039DC03F00F033A689A4214D2084B1B6823F07B
S315080039EC0F0206493B6813430B60044B1B6803F034
S315080039FC0F033A689A4205D0012386E0002000524C
S31508003A0C004402587B681B6803F00403002B10D093
S31508003A1C7B681A693F4B9B6903F070039A4208D27C
S31508003A2C3C4B9B6923F070027B681B69394913432D
S31508003A3C8B617B681B6803F00803002B10D07B682E
S31508003A4C5A69344BDB6903F070039A4208D2314B3E
S31508003A5CDB6923F070027B685B692E491343CB61E3
S31508003A6C7B681B6803F01003002B10D07B689A69DF
S31508003A7C284BDB6903F4E0639A4208D2254BDB69D1
S31508003A8C23F4E0627B689B6922491343CB617B680C
S31508003A9C1B6803F02003002B10D07B68DA691D4BDA
S31508003AAC1B6A03F070039A4208D21A4B1B6A23F05E
S31508003ABC70027B68DB69174913430B6200F034F814
S31508003ACC0246144B9B691B0A03F00F031249CB5C85
S31508003ADC03F01F0322FA03F33B610E4B9B6903F0B9
S31508003AEC0F030D4AD35C03F01F033A6922FA03F35A
S31508003AFC0A4A13600A4A3B6913600A4B1B68184644
S31508003B0CFDF76CFB0346FB73FB7B18461837BD4663
S31508003B1C80BD00BF00440258A054000820000024B1
S31508003B2C1C0000242400002480B489B000AFB34BD9
S31508003B3C1B6903F03803182B00F2558101A252F8C1
S31508003B4C23F000BFB53B0008F33D0008F33D000821
S31508003B5CF33D0008F33D0008F33D0008F33D00086B
S31508003B6CF33D0008DB3B0008F33D0008F33D000875
S31508003B7CF33D0008F33D0008F33D0008F33D00084B
S31508003B8CF33D0008E13B0008F33D0008F33D00084F
S31508003B9CF33D0008F33D0008F33D0008F33D00082B
S31508003BACF33D0008E73B0008944B1B6803F0200321
S31508003BBC002B09D0914B1B68DB0803F00303904AD2
S31508003BCC22FA03F3BB6111E18D4BBB610EE18D4B00
S31508003BDCBB610BE18C4BBB6108E1884B9B6A03F01C
S31508003BEC03037B61854B9B6A1B0903F03F033B610F
S31508003BFC824BDB6A03F00103FB60804B5B6BDB08D3
S31508003C0CC3F30C03FA6802FB03F307EE903AF8EEDB
S31508003C1C677AC7ED027A3B69002B00F0E1807B6975
S31508003C2C022B00F083807B69022B00F2A1807B6952
S31508003C3C002B03D07B69012B56D099E06F4B1B6880
S31508003C4C03F02003002B2DD06C4B1B68DB0803F00C
S31508003C5C03036B4A22FA03F37B607B6807EE903A00
S31508003C6CF8EE676A3B6907EE903AF8EE677A86EEE5
S31508003C7CA77A624B1B6BC3F3080307EE903AF8EE70
S31508003C8C676A97ED026ADFED615AC6EE257A76EE1B
S31508003C9CA77AF7EE006A77EEA67A67EE277AC7ED6B
S31508003CAC077A87E03B6907EE903AF8EE677ADFED1C
S31508003CBC586A86EEA77A514B1B6BC3F3080307EEBB
S31508003CCC903AF8EE676A97ED026ADFED505AC6EE3F
S31508003CDC257A76EEA77AF7EE006A77EEA67A67EE7D
S31508003CEC277AC7ED077A65E03B6907EE903AF8EE56
S31508003CFC677ADFED486A86EEA77A404B1B6BC3F3EF
S31508003D0C080307EE903AF8EE676A97ED026ADFED5C
S31508003D1C3F5AC6EE257A76EEA77AF7EE006A77EE64
S31508003D2CA67A67EE277AC7ED077A43E03B6907EE72
S31508003D3C903AF8EE677ADFED386A86EEA77A2F4B5B
S31508003D4C1B6BC3F3080307EE903AF8EE676A97ED18
S31508003D5C026ADFED2E5AC6EE257A76EEA77AF7EECC
S31508003D6C006A77EEA67A67EE277AC7ED077A21E01E
S31508003D7C3B6907EE903AF8EE677ADFED266A86EE2F
S31508003D8CA77A1E4B1B6BC3F3080307EE903AF8EEA3
S31508003D9C676A97ED026ADFED1D5AC6EE257A76EE4E
S31508003DACA77AF7EE006A77EEA67A67EE277AC7ED5A
S31508003DBC077A00BF114B1B6B5B0A03F07F030133B9
S31508003DCC3B603B6807EE903AB8EE677AD7ED076A20
S31508003DDCC6EE877AFCEEE77A17EE903ABB6105E0F9
S31508003DEC0023BB6102E0074BBB6100BFBB691846E9
S31508003DFC2437BD465DF8047B704700BF0044025863
S31508003E0C0090D00300093D0040787D010000004673
S31508003E1C0024744C0024744A20BCBE4B2DE9B04FC8
S31508003E2CC6B000AFC7F80401002387F81731002382
S31508003E3C87F81631D7F80431D3E9002302F0006469
S31508003E4C002554EA050349D0D7F804315B6EB3F55F
S31508003E5C401F2FD0B3F5401F28D8B3F5001F1AD032
S31508003E6CB3F5001F22D8002B03D0B3F5801F07D05B
S31508003E7C1CE0AB4BDB6AAA4A43F40033D3621AE064
S31508003E8CD7F8043108330221184601F067F90346BE
S31508003E9C87F817310FE0D7F8043128330221184672
S31508003EAC01F00EFA034687F8173104E0012387F868
S31508003EBC173100E000BF97F81731002B0AD1984B41
S31508003ECC1B6D23F44011D7F804315B6E944A0B43EF
S31508003EDC136503E097F8173187F81631D7F80431CC
S31508003EECD3E9002302F480784FF0000958EA090355
S31508003EFC47D0D7F804319B6D042B2AD801A252F867
S31508003F0C23F000BF253F0008333F0008493F00084F
S31508003F1C673F0008673F0008814BDB6A804A43F419
S31508003F2C0033D3621AE0D7F8043108330021184657
S31508003F3C01F014F9034687F817310FE0D7F8043166
S31508003F4C28330021184601F0BBF9034687F81731C8
S31508003F5C04E0012387F8173100E000BF97F8173102
S31508003F6C002B0AD16E4B1B6D23F00701D7F80431D1
S31508003F7C9B6D6B4A0B43136503E097F8173187F86B
S31508003F8C1631D7F80431D3E9002302F4806A4FF0CE
S31508003F9C000B5AEA0B035BD0D7F80431D3F8A430DC
S31508003FACB3F5200F3BD0B3F5200F34D8B3F5000F7B
S31508003FBC37D0B3F5000F2ED8B3F5C00F33D0B3F501
S31508003FCCC00F28D8B3F5800F1AD0B3F5800F22D8B6
S31508003FDC002B03D0B3F5001F07D01CE0504BDB6A4F
S31508003FEC4F4A43F40033D3621EE0D7F80431083342
S31508003FFC0021184601F0B2F8034687F8173113E08A
S3150800400CD7F8043128330021184601F059F903462C
S3150800401C87F8173108E0012387F8173104E000BF49
S3150800402C02E000BF00E000BF97F81731002B0BD158
S3150800403C3B4B9B6D23F46001D7F80431D3F8A430BD
S3150800404C374A0B43936503E097F8173187F816310F
S3150800405CD7F80431D3E9002302F40063C7F8F83023
S3150800406C0023C7F8FC30D7E93E120B4613435DD044
S3150800407CD7F80431D3F8A830B3F1A06F3BD0B3F11D
S3150800408CA06F34D8B3F1806F37D0B3F1806F2ED8C8
S3150800409CB3F1407F33D0B3F1407F28D8B3F1007F1A
S315080040AC1AD0B3F1007F22D8002B03D0B3F1807F4E
S315080040BC07D01CE01A4BDB6A194A43F40033D36267
S315080040CC1EE0D7F8043108330021184601F046F8EB
S315080040DC034687F8173113E0D7F804312833002143
S315080040EC184601F0EDF8034687F8173108E0012366
S315080040FC87F8173104E000BF02E000BF00E000BFFC
S3150800410C97F81731002B0DD1054B9B6D23F0E06109
S3150800411CD7F80431D3F8A830014A0B43936505E068
S3150800412C0044025897F8173187F81631D7F8043136
S3150800413CD3E9002302F00073C7F8F0300023C7F860
S3150800414CF430D7E93C120B4613433AD0D7F804316E
S3150800415CDB6C302B1FD0302B19D8202B0CD0202BF6
S3150800416C15D8002B19D0102B11D1AA4BDB6AA94AEA
S3150800417C43F40033D36211E0D7F804310833022133
S3150800418C184600F0EBFF034687F8173106E00123C3
S3150800419C87F8173102E000BF00E000BF97F8173127
S315080041AC002B0AD19B4BDB6C23F03001D7F804317A
S315080041BCDB6C984A0B43D36403E097F8173187F8FE
S315080041CC1631D7F80431D3E9002302F48053C7F823
S315080041DCE8300023C7F8EC30D7E93A120B461343FC
S315080041EC51D0D7F80431DB6DB3F5804F35D0B3F524
S315080041FC804F2ED8B3F5405F31D0B3F5405F28D841
S3150800420CB3F5005F1AD0B3F5005F22D8002B03D0A4
S3150800421CB3F5805F07D01CE07E4BDB6A7D4A43F41E
S3150800422C0033D3621CE0D7F8043108330021184652
S3150800423C00F094FF034687F8173111E0D7F80431DC
S3150800424C28330021184601F03BF8034687F8173146
S3150800425C06E0012387F8173102E000BF00E000BF33
S3150800426C97F81731002B0AD16A4B1B6D23F4E041E2
S3150800427CD7F80431DB6D674A0B43136503E097F8EF
S3150800428C173187F81631D7F80431D3E9002302F42D
S3150800429C0053C7F8E0300023C7F8E430D7E93812E2
S315080042AC0B46134353D0D7F804311B6EB3F5A02F26
S315080042BC33D0B3F5A02F2CD8B3F5802F2FD0B3F568
S315080042CC802F26D8B3F5403F2BD0B3F5403F20D8E6
S315080042DCB3F5003F12D0B3F5003F1AD8002B22D005
S315080042ECB3F5803F15D1D7F80431083301211846A8
S315080042FC00F034FF034687F8173115E0D7F8043178
S3150800430C28330121184600F0DBFF034687F81731DE
S3150800431C0AE0012387F8173106E000BF04E000BF66
S3150800432C02E000BF00E000BF97F81731002B0AD156
S3150800433C384B1B6D23F4E021D7F804311B6E354A34
S3150800434C0B43136503E097F8173187F81631D7F83E
S3150800435C0431D3E9002302F48043C7F8D83000238C
S3150800436CC7F8DC30D7E936120B46134358D0D7F8C2
S3150800437C0431D3F8AC30B3F1A04F33D0B3F1A04F1E
S3150800438C2CD8B3F1804F2FD0B3F1804F26D8B3F188
S3150800439C405F2BD0B3F1405F20D8B3F1005F12D049
S315080043ACB3F1005F1AD8002B22D0B3F1805F15D178
S315080043BCD7F8043108330121184600F0CFFE03461E
S315080043CC87F8173115E0D7F8043128330121184638
S315080043DC00F076FF034687F817310AE0012387F8C1
S315080043EC173106E000BF04E000BF02E000BF00E0A2
S315080043FC00BF97F81731002B0ED1064B9B6D23F097
S3150800440CE041D7F80431D3F8AC30024A0B43936534
S3150800441C06E000BF0044025897F8173187F81631A2
S3150800442CD7F80431D3E9002302F40043C7F8D03097
S3150800443C0023C7F8D430D7E934120B46134337D0C8
S3150800444CD7F80431DB6EB3F1005F0ED0B3F1005F21
S3150800445C16D8002B18D0B3F1805F11D1C44BDB6A88
S3150800446CC34A43F40033D3620FE0D7F80431083358
S3150800447C0121184600F072FE034687F8173104E04E
S3150800448C012387F8173100E000BF97F81731002B86
S3150800449C0AD1B74B1B6D23F04051D7F80431DB6EAC
S315080044ACB34A0B43136503E097F8173187F81631AF
S315080044BCD7F80431D3E9002302F08073C7F8C83063
S315080044CC0023C7F8CC30D7E932120B46134339D040
S315080044DCD7F804319B6C032B1CD801A252F823F095
S315080044EC29450008FD4400080B4500082945000825
S315080044FC9F4BDB6A9E4A43F40033D3620FE0D7F82E
S3150800450C043108330221184600F028FE034687F8C2
S3150800451C173104E0012387F8173100E000BF97F83C
S3150800452C1731002B0AD1924BDB6C23F00301D7F819
S3150800453C04319B6C8E4A0B43D36403E097F817310E
S3150800454C87F81631D7F80431D3E9002302F480032F
S3150800455CC7F8C0300023C7F8C430D7E930120B4669
S3150800456C134300F09980834B1B68824A43F480738B
S3150800457C1360FCF77DFEC7F810010BE0FCF778FE1C
S3150800458C0246D7F81031D31A642B03D9032387F8BC
S3150800459C173105E0774B1B6803F48073002BEDD0BD
S315080045AC97F81731002B73D1714B1A6FD7F8043162
S315080045BCD3F8B030534003F44073002B15D06C4B32
S315080045CC1B6F23F44073C7F80C31694B1B6F684A91
S315080045DC43F480331367664B1B6F654A23F48033A9
S315080045EC1367634AD7F80C311367D7F80431D3F835
S315080045FCB030B3F5807F18D1FCF73AFEC7F8100136
S3150800460C0DE0FCF735FE0246D7F81031D21A41F206
S3150800461C88339A4203D9032387F8173105E0544B9C
S3150800462C1B6F03F00203002BEBD097F81731002B06
S3150800463C29D1D7F80431D3F8B03003F44073B3F565
S3150800464C407F0ED14A4B1B6923F47C51D7F80431B1
S3150800465CD3F8B0301A09484B1340454A0B4313613B
S3150800466C05E0434B1B69424A23F47C531361404BC8
S3150800467C196FD7F80431D3F8B030C3F30B033C4A9F
S3150800468C0B43136708E097F8173187F8163103E0E0
S3150800469C97F8173187F81631D7F80431D3E9002380
S315080046AC02F00103C7F8B8300023C7F8BC30D7E9C5
S315080046BC2E120B46134300F08F80D7F804319B6FEC
S315080046CC282B71D801A252F823F000BFBD47000869
S315080046DCB5470008B5470008B5470008B5470008B0
S315080046ECB5470008B5470008B547000889470008CC
S315080046FCB5470008B5470008B5470008B547000890
S3150800470CB5470008B5470008B54700089F47000895
S3150800471CB5470008B5470008B5470008B54700086F
S3150800472CB5470008B5470008B5470008BD47000857
S3150800473CB5470008B5470008B5470008B54700084F
S3150800474CB5470008B5470008B5470008BD47000837
S3150800475CB5470008B5470008B5470008B54700082F
S3150800476CB5470008B5470008B5470008BD47000817
S3150800477C0044025800480258CFFFFF00D7F804310E
S3150800478C08330121184600F0E9FC034687F817316F
S3150800479C0FE0D7F8043128330121184600F090FDB4
S315080047AC034687F8173104E0012387F8173100E030
S315080047BC00BF97F81731002B0AD1BF4B5B6D23F05E
S315080047CC3801D7F804319B6FBB4A0B43536503E09A
S315080047DC97F8173187F81631D7F80431D3E900233F
S315080047EC02F00203C7F8B0300023C7F8B430D7E993
S315080047FC2C120B46134341D0D7F804315B6F052BAB
S3150800480C24D801A252F823F0614800082D48000864
S3150800481C43480008614800086148000861480008D8
S3150800482CD7F8043108330121184600F097FC0346E3
S3150800483C87F817310FE0D7F80431283301211846C9
S3150800484C00F03EFD034687F8173104E0012387F88C
S3150800485C173100E000BF97F81731002B0AD1964B99
S3150800486C5B6D23F00701D7F804315B6F924A0B4353
S3150800487C536503E097F8173187F81631D7F80431E2
S3150800488CD3E9002302F00403C7F8A8300023C7F8BD
S3150800489CAC30D7E92A120B46134344D0D7F8043167
S315080048ACD3F89030052B25D801A252F823F000BF77
S315080048BC09490008D5480008EB48000809490008CA
S315080048CC0949000809490008D7F8043108330121B9
S315080048DC184600F043FC034687F817310FE0D7F863
S315080048EC043128330121184600F0EAFC034687F800
S315080048FC173104E0012387F8173100E000BF97F859
S3150800490C1731002B0BD16C4B9B6D23F00701D7F895
S3150800491C0431D3F89030684A0B43936503E097F853
S3150800492C173187F81631D7F80431D3E9002302F08A
S3150800493C2003C7F8A0300023C7F8A430D7E92812FB
S3150800494C0B46134355D0D7F80431D3F88C30B3F152
S3150800495CA04F33D0B3F1A04F2CD8B3F1804F2FD042
S3150800496CB3F1804F26D8B3F1405F2BD0B3F1405F3B
S3150800497C20D8B3F1005F12D0B3F1005F1AD8002B20
S3150800498C22D0B3F1805F15D1D7F804310833002152
S3150800499C184600F0E3FB034687F8173115E0D7F8FD
S315080049AC043128330221184600F08AFC034687F89E
S315080049BC17310AE0012387F8173106E000BF04E037
S315080049CC00BF02E000BF00E000BF97F81731002BCC
S315080049DC0BD1394B5B6D23F0E041D7F80431D3F892
S315080049EC8C30354A0B43536503E097F8173187F833
S315080049FC1631D7F80431D3E9002302F04003C7F87F
S31508004A0C98300023C7F89C30D7E926120B46134377
S31508004A1C58D0D7F80431D3F89830B3F5A05F33D013
S31508004A2CB3F5A05F2CD8B3F5805F2FD0B3F5805FB4
S31508004A3C26D8B3F5406F2BD0B3F5406F20D8B3F515
S31508004A4C006F12D0B3F5006F1AD8002B22D0B3F52D
S31508004A5C806F15D1D7F8043108330021184600F0B9
S31508004A6C7DFB034687F8173115E0D7F80431283350
S31508004A7C0221184600F024FC034687F817310AE091
S31508004A8C012387F8173106E000BF04E000BF02E0F7
S31508004A9C00BF00E000BF97F81731002B0ED1064B6C
S31508004AAC9B6D23F4E051D7F80431D3F89830024AB9
S31508004ABC0B43936506E000BF0044025897F817317C
S31508004ACC87F81631D7F80431D3E9002302F08003AE
S31508004ADCC7F890300023C7F89430D7E924120B4650
S31508004AEC134355D0D7F80431D3F89C30B3F5204F7F
S31508004AFC33D0B3F5204F2CD8B3F5004F2FD0B3F5E0
S31508004B0C004F26D8B3F5C04F2BD0B3F5C04F20D8DD
S31508004B1CB3F5804F12D0B3F5804F1AD8002B22D09C
S31508004B2CB3F5005F15D1D7F80431083300211846C0
S31508004B3C00F014FB034687F8173115E0D7F8043153
S31508004B4C28330221184600F0BBFB034687F81731B9
S31508004B5C0AE0012387F8173106E000BF04E000BF1E
S31508004B6C02E000BF00E000BF97F81731002B0BD10D
S31508004B7CA04B9B6D23F46041D7F80431D3F89C30D5
S31508004B8C9C4A0B43936503E097F8173187F816315F
S31508004B9CD7F80431D3E9002302F00803C7F88830A4
S31508004BAC0023C7F88C30D7E922120B4613431ED0C4
S31508004BBCD7F80431D3F88030B3F5805F0CD1D7F829
S31508004BCC043128330221184600F07AFB0346002BE1
S31508004BDC02D0012387F81631864B5B6D23F44051BE
S31508004BECD7F80431D3F88030824A0B435365D7F88B
S31508004BFC0431D3E9002302F01003C7F880300023F0
S31508004C0CC7F88430D7E920120B4613431ED0D7F8C1
S31508004C1C0431D3F89430B3F5807F0CD1D7F804312E
S31508004C2C28330221184600F04BFB0346002B02D012
S31508004C3C012387F816316F4B9B6D23F44071D7F817
S31508004C4C0431D3F894306B4A0B439365D7F8043187
S31508004C5CD3E9002302F40023BB670023FB67D7E9DB
S31508004C6C1E120B4613433ED0D7F80431D3F8A030A6
S31508004C7CB3F5003F22D0B3F5003F1BD8002B03D069
S31508004C8CB3F5803F0BD015E0D7F804310833002173
S31508004C9C184600F063FA034687F817310FE0D7F881
S31508004CAC043128330221184600F00AFB034687F81C
S31508004CBC173104E0012387F8173100E000BF97F895
S31508004CCC1731002B0BD14B4B9B6D23F44031D7F886
S31508004CDC0431D3F8A030474A0B43936503E097F8A1
S31508004CEC173187F81631D7F80431D3E9002302F4C3
S31508004CFC80233B6700237B67D7E91C120B461343BB
S31508004D0C3BD0D7F80431D3F88430B3F5401F1FD005
S31508004D1CB3F5401F18D8B3F5801F03D0B3F5001FA1
S31508004D2C07D011E0334BDB6A324A43F40033D362C3
S31508004D3C0FE0D7F8043128330121184600F0C0FAE1
S31508004D4C034687F8173104E0012387F8173100E08A
S31508004D5C00BF97F81731002B0BD1264B5B6D23F44C
S31508004D6C4011D7F80431D3F88430224A0B435365E3
S31508004D7C03E097F8173187F81631D7F80431D3E9D9
S31508004D8C002302F48033BB660023FB66D7E91A12AC
S31508004D9C0B46134334D0D7F804311B6D002B03D0C4
S31508004DACB3F5803F07D011E0124BDB6A114A43F486
S31508004DBC0033D3620EE0D7F80431083302211846C3
S31508004DCC00F0CCF9034687F8173103E0012387F87E
S31508004DDC173100BF97F81731002B0DD1054BDB6C3B
S31508004DEC23F48031D7F804311B6D024A0B43D36484
S31508004DFC06E000BF0044025897F8173187F81631B9
S31508004E0CD7F80431D3E9002302F000533B6600239C
S31508004E1C7B66D7E918120B4613430CD0D7F8043126
S31508004E2C28330221184600F04BFA0346002B02D011
S31508004E3C012387F81631D7F80431D3E9002302F495
S31508004E4C0033BB650023FB65D7E916120B461343E3
S31508004E5C36D0D7F80431DB6FB3F5407F18D0B3F5ED
S31508004E6C407F11D8B3F5007F14D0B3F5007F0BD86B
S31508004E7C002B11D0B3F5807F06D1B74BDB6AB64A47
S31508004E8C43F40033D36208E0012387F8173104E0B2
S31508004E9C00BF02E000BF00E000BF97F81731002BF7
S31508004EAC0AD1AD4B5B6D23F44071D7F80431DB6F37
S31508004EBCA94A0B43536503E097F8173187F816315F
S31508004ECCD7F80431D3E9002302F480133B65002399
S31508004EDC7B65D7E914120B46134309D09E4B1B6D01
S31508004EEC23F00041D7F804311B6F9B4A0B4313651B
S31508004EFCD7F80431D3E9002302F40013BB6400236A
S31508004F0CFB64D7E912120B46134309D0924B1B6D5F
S31508004F1C23F08071D7F804319B6E8F4A0B431365C7
S31508004F2CD7F80431D3E9002302F080433B6400230D
S31508004F3C7B64D7E910120B4613430ED0864B1B69BC
S31508004F4C854A23F400431361834B1969D7F8043156
S31508004F5CD3F8B430804A0B431361D7F80431D3E93C
S31508004F6C002302F00043BB630023FB63D7E90E1250
S31508004F7C0B46134309D0784BDB6C23F04051D7F81A
S31508004F8C04315B6D744A0B43D364D7F80431D3E907
S31508004F9C002302F400033B6300237B63D7E90C125E
S31508004FAC0B4613430AD06C4B5B6D23F44001D7F8C0
S31508004FBC0431D3F88830684A0B435365D7F8043163
S31508004FCCD3E900230021B96203F00103FB62D7E998
S31508004FDC0A120B46134311D0D7F8043108330021B3
S31508004FEC184600F0BBF8034687F8173197F81731BF
S31508004FFC002B03D097F8173187F81631D7F80431F8
S3150800500CD3E900230021396203F002037B62D7E956
S3150800501C08120B46134311D0D7F804310833012173
S3150800502C184600F09BF8034687F8173197F817319E
S3150800503C002B03D097F8173187F81631D7F80431B7
S3150800504CD3E900230021B96103F00403FB61D7E916
S3150800505C06120B46134311D0D7F804310833022134
S3150800506C184600F07BF8034687F8173197F817317E
S3150800507C002B03D097F8173187F81631D7F8043177
S3150800508CD3E900230021396103F008037B61D7E9D2
S3150800509C04120B46134311D0D7F8043128330021D8
S315080050AC184600F00DF9034687F8173197F81731AB
S315080050BC002B03D097F8173187F81631D7F8043137
S315080050CCD3E900230021B96003F01003FB60D7E98C
S315080050DC02120B46134311D0D7F804312833012199
S315080050EC184600F0EDF8034687F8173197F817318C
S315080050FC002B03D097F8173187F81631D7F80431F7
S3150800510CD3E900230021396003F020037B60D7E93B
S3150800511C00120B46134311D0D7F804312833022159
S3150800512C184600F0CDF8034687F8173197F817316B
S3150800513C002B03D097F8173187F8163197F81631E4
S3150800514C002B01D1002300E00123184607F58C77C4
S3150800515CBD46BDE8B08F00BF0044025880B584B088
S3150800516C00AF786039600023FB73534B9B6A03F0DE
S3150800517C0303032B01D1012399E04F4B1B684E4ABD
S3150800518C23F080631360FCF773F8B86008E0FCF74B
S3150800519C6FF80246BB68D31A022B01D9032386E0A3
S315080051AC454B1B6803F00063002BF0D1424B9B6AFE
S315080051BC23F47C327B681B681B033F4913438B62C1
S315080051CC7B685B68013BC3F308027B689B68013B01
S315080051DC5B029BB21A437B68DB68013B1B0403F436
S315080051ECFE031A437B681B69013B1B0603F0FE434F
S315080051FC314913438B63304BDB6A23F0C0027B685F
S3150800520C5B692D491343CB622B4BDB6A23F02002D7
S3150800521C7B689B6928491343CB62274BDB6A264A72
S3150800522C23F01003D362244BDA6B244B13407A68B1
S3150800523CD269D20020491343CB631F4BDB6A1E4A43
S3150800524C43F01003D3623B68002B06D11A4BDB6A7A
S3150800525C194A43F40023D3620FE03B68012B06D1AD
S3150800526C154BDB6A144A43F48013D36205E0124BE0
S3150800527CDB6A114A43F40013D3620F4B1B680E4AC0
S3150800528C43F080631360FBF7F3FFB86008E0FBF7A5
S3150800529CEFFF0246BB68D31A022B01D9032306E09B
S315080052AC054B1B6803F00063002BF0D0FB7B1846FC
S315080052BC1037BD4680BD00BF004402580700FFFFEB
S315080052CC80B584B000AF786039600023FB73534B0C
S315080052DC9B6A03F00303032B01D1012399E04F4B7F
S315080052EC1B684E4A23F080531360FBF7C1FFB86066
S315080052FC08E0FBF7BDFF0246BB68D31A022B01D99F
S3150800530C032386E0454B1B6803F00053002BF0D1B2
S3150800531C424B9B6A23F07C727B681B681B053F49D2
S3150800532C13438B627B685B68013BC3F308027B689B
S3150800533C9B68013B5B029BB21A437B68DB68013BAB
S3150800534C1B0403F4FE031A437B681B69013B1B060B
S3150800535C03F0FE43314913430B64304BDB6A23F4E9
S3150800536C40627B685B692D491343CB622B4BDB6A26
S3150800537C23F400727B689B6928491343CB62274B3D
S3150800538CDB6A264A23F48073D362244B5A6C244B6B
S3150800539C13407A68D269D200204913434B641F4BD9
S315080053ACDB6A1E4A43F48073D3623B68002B06D132
S315080053BC1A4BDB6A194A43F48003D3620FE03B6845
S315080053CC012B06D1154BDB6A144A43F40003D3624E
S315080053DC05E0124BDB6A114A43F08073D3620F4B1C
S315080053EC1B680E4A43F080531360FBF741FFB86005
S315080053FC08E0FBF73DFF0246BB68D31A022B01D91E
S3150800540C032306E0054B1B6803F00053002BF0D072
S3150800541CFB7B18461037BD4680BD00BF00440258BA
S3150800542C0700FFFF02440346934200D1704703F876
S3150800543C011BF9E770B50D4D0D4C641BA410002625
S3150800544CA64209D10B4D0C4C00F018F8641BA4109D
S3150800545C0026A64205D170BD55F8043B984701367F
S3150800546CEEE755F8043B98470136F2E7B0540008C6
S3150800547CB0540008B0540008B4540008F8B500BF7E
S3150800548CF8BC08BC9E467047F8B500BFF8BC08BC0B
S3090800549C9E46704763
S315080054A000000000000000000102030406070809C6
S309080054B0F1020008EF
S309080054B4CD0200080F
S315080054B80001010103020002030102035103000867
S315080054C875030008C50400087D0400080090D00389
S311080054D80090D003100000000100000046
S70508001119C8
