S00F000043355F4D61696E2E73726563B9
S3150802000000000524491302082D10020835100208BB
S315080200103D100208451002084D10020800000000B3
S315080200200000000000000000000000005510020851
S315080200306310020800000000711002087F1002080F
S31508020040A9130208A9130208A9130208A913020888
S31508020050A9130208A9130208A9130208A913020878
S31508020060A9130208A9130208A9130208A913020868
S31508020070A9130208A9130208A9130208A913020858
S31508020080A9130208A9130208A9130208A913020848
S31508020090A9130208A9130208A9130208A913020838
S315080200A0A9130208A9130208A9130208A913020828
S315080200B0A9130208A9130208A9130208A913020818
S315080200C0A9130208A9130208A9130208A913020808
S315080200D0A9130208A9130208A9130208A9130208F8
S315080200E0A9130208A913020800000000A9130208AE
S315080200F0A9130208A9130208A9130208A9130208D8
S31508020100A9130208A9130208A9130208A9130208C7
S31508020110A9130208A9130208A9130208A9130208B7
S31508020120A9130208A9130208A9130208A9130208A7
S31508020130A9130208A9130208A9130208A913020897
S31508020140000000000000000000000000000000009F
S31508020150A9130208A9130208A9130208A913020877
S31508020160A9130208A9130208A9130208A913020867
S31508020170A9130208A9130208A9130208A913020857
S31508020180A9130208A9130208A9130208A913020847
S31508020190A9130208A9130208A9130208A913020837
S315080201A0A9130208A9130208A913020800000000ED
S315080201B0A9130208A9130208A9130208A913020817
S315080201C0A9130208A9130208000000000000000093
S315080201D00000000000000000A91302080000000049
S315080201E000000000000000000000000000000000FF
S315080201F00000000000000000A9130208A913020863
S31508020200A9130208A913020800000000A91302088C
S31508020210A9130208A9130208A9130208A9130208B6
S31508020220A913020800000000A91302080000000032
S31508020230A9130208A913020800000000A91302085C
S31508020240A9130208A9130208A9130208A913020886
S31508020250A9130208A9130208A9130208A913020876
S31508020260A9130208A9130208A9130208A913020866
S31508020270A9130208A9130208A9130208000000001C
S31508020280A9130208A9130208A9130208A913020846
S3150802029000000000A9130208A9130208A9130208FC
S315080202A0A9130208A9130208A9130208A913020826
S315080202B0A9130208A9130208A9130208A913020816
S311080202C0A9130208A9130208A9130208D0
S315080202D010B5054C237833B9044B13B10448AFF370
S315080202E000800123237010BDD801002400000000FD
S315080202F07498020808B5034B1BB103490348AFF3C8
S31508020300008008BD00000000DC0100247498020881
S3150802031001F0FF01102A2BDB10F0070F08D010F8A6
S31508020320013B013A8B422DD010F0070F42B3F6D1AA
S31508020330F0B441EA012141EA014122F007047FF0C3
S3150802034000070023F0E80256083C85EA010586EA1A
S31508020350010685FA47F5A3FA87F586FA47F6A5FA56
S3150802036087F68EB9EED1F0BC01F0FF0102F0070262
S3150802037032B110F8013B013A83EA010313B1F8D10D
S315080203800020704701387047002D06BF35460338EE
S31508020390073815F0010F07D1013015F4807F02BF27
S315080203A0013015F4C03F0130F0BC0138704700BF78
S315080203B0034613F8012B002AFBD1181A0138704795
S315080203C081F0004102E000BF83F0004330B54FEAF6
S315080203D041044FEA430594EA050F08BF90EA020F63
S315080203E01FBF54EA000C55EA020C7FEA645C7FEAF6
S315080203F0655C00F0E2804FEA5454D4EB5555B8BF19
S315080204006D420CDD2C4480EA020281EA030382EA89
S31508020410000083EA010180EA020281EA0303362D1B
S3150802042088BF30BD11F0004F4FEA01314FF4801CEE
S315080204304CEA113102D0404261EB410113F0004F00
S315080204404FEA03334CEA133302D0524263EB4303B7
S3150802045094EA050F00F0A780A4F10104D5F1200E55
S315080204600DDB02FA0EFC22FA05F2801841F10001B0
S3150802047003FA0EF2801843FA05F359410EE0A5F184
S3150802048020050EF1200E012A03FA0EFC28BF4CF0B5
S31508020490020C43FA05F3C01851EBE37101F000456B
S315080204A007D54FF0000EDCF1000C7EEB00006EEB78
S315080204B00101B1F5801F1BD3B1F5001F0CD3490802
S315080204C05FEA30004FEA3C0C04F101044FEA445259
S315080204D012F5800F80F09A80BCF1004F08BF5FEAE0
S315080204E0500C50F1000041EB045141EA050130BDC0
S315080204F05FEA4C0C404141EB0101013C28BFB1F5D2
S31508020500801FE9D291F0000F04BF01460020B1FA1C
S3150802051081F308BF2033A3F10B03B3F120020CDAEF
S315080205200C3208DD02F1140CC2F10C0201FA0CF0CD
S3150802053021FA02F10CE002F11402D8BFC2F1200C32
S3150802054001FA02F120FA0CFCDCBF41EA0C019040E8
S31508020550E41AA2BF01EB0451294330BD6FEA040431
S315080205601F3C1CDA0C340EDC04F11404C4F120021C
S3150802057020FA04F001FA02F340EA030021FA04F32E
S3150802058045EA030130BDC4F10C04C4F1200220FA85
S3150802059002F001FA04F340EA0300294630BD21FAC3
S315080205A004F0294630BD94F0000F83F4801306BF89
S315080205B081F480110134013D4EE77FEA645C18BF7D
S315080205C07FEA655C29D094EA050F08BF90EA020F14
S315080205D005D054EA000C04BF1946104630BD91EA0C
S315080205E0030F1EBF0021002030BD5FEA545C05D10F
S315080205F04000494128BF41F0004130BD14F580044E
S315080206003CBF01F5801130BD01F0004545F0FE41C1
S3150802061041F470014FF0000030BD7FEA645C1ABFF6
S31508020620194610467FEA655C1CBF0B46024650EA2D
S31508020630013406BF52EA033591EA030F41F4002159
S3150802064030BD00BF90F0000F04BF0021704730B5DF
S315080206504FF4806404F132044FF000054FF00001B4
S3150802066050E700BF90F0000F04BF0021704730B575
S315080206704FF4806404F1320410F0004548BF40424A
S315080206804FF000013EE700BF42004FEAE2014FEA9F
S3150802069031014FEA02701FBF12F07F4393F07F4F7A
S315080206A081F06051704732F07F4208BF704793F07D
S315080206B07F4F04BF41F40021704730B54FF4607490
S315080206C001F0004521F000411CE700BF50EA010293
S315080206D008BF704730B54FF000050AE050EA01023C
S315080206E008BF704730B511F0004502D5404261EBAC
S315080206F041014FF4806404F132045FEA915C3FF4ED
S31508020700D8AE4FF003025FEADC0C18BF03325FEA89
S31508020710DC0C18BF033202EBDC02C2F1200300FA3A
S3150802072003FC20FA02F001FA03FE40EA0E0021FA5F
S3150802073002F11444BDE600BF08B502460B4643EC77
S31508020740172BB5EEC07BF1EE10FA03D4BDE80840CC
S3150802075000F00AB8B1EE477B51EC170B00F004F82B
S31508020760404261EB410108BD9FED0B6B41EC170B53
S315080207709FED0B5B27EE066BBCEEC66BB8EE464BDF
S31508020780A4EE457BFCEEC77B16EE101A17EE900A0E
S31508020790704700BFAFF30080000000000000F03D84
S315080207A0000000000000F04180B487B000AF87ED7A
S315080207B0050AC7ED040A87ED031AC7ED021A87ED83
S315080207C0012A97ED057AD7ED047A37EE677AD7EDDF
S315080207D0016AD7ED027A76EEE77A67EE276A97ED2F
S315080207E0037AD7ED047A77EE677A86EEA77AD7ED9B
S315080207F0027A77EE277AB0EE670A1C37BD465DF8AD
S31508020800047B704780B582B000AF78600B46FB70F8
S3150802081000F0B0FA7B681B7803F07F03DAB27B68D4
S315080208201A70FB781946786800F06CFA00F096FAA6
S3150802083000BF0837BD4680BD80B584B000AFF860FA
S31508020840B9601346FB7100F095FAFB681B7863F0F2
S315080208507F03DAB2FB681A70FB791A46B968F86838
S3150802086000F064FA00F07AFA00BF1037BD4680BD80
S3150802087080B584B000AF786039603B6801331B7875
S315080208801AB23B6802331B781B021BB21343FB8165
S315080208903B6803331B781AB23B6804331B781B0286
S315080208A01BB21343BB813B6805331B781AB23B68FC
S315080208B006331B781B021BB213437B81B7F90E3032
S315080208C007EE903AF8EEE77AB1EE002AF9EE001A48
S315080208D09FED1F1ADFED1F0AB0EE670AFFF764FFE6
S315080208E0F0EE407A7B68C3ED007AB7F90C3007EE72
S315080208F0903AF8EEE77AB1EE002AF9EE001A9FED81
S31508020900141ADFED140AB0EE670AFFF74DFFF0EE90
S31508020910407A7B68C3ED017AB7F90A3007EE903A56
S31508020920F8EEE77AB1EE002AF9EE001A9FED081AF8
S31508020930DFED080AB0EE670AFFF736FFF0EE407AF7
S315080209407B68C3ED027A00BF1037BD4680BD00BF83
S3150802095000F8FF4600F8FFC680B483B000AF78609F
S3150802096039603B681B781AB23B6801331B781B0255
S315080209701BB213431BB207EE903AF8EEE77A7B688E
S31508020980C3ED037A3B6802331B781AB23B6803331A
S315080209901B781B021BB213431BB207EE903AF8EE02
S315080209A0E77A7B68C3ED047A3B6804331B781AB28C
S315080209B03B6805331B781B021BB213431BB207EEB7
S315080209C0903AF8EEE77A7B68C3ED057A00BF0C37F2
S315080209D0BD465DF8047B704780B584B000AF0F232F
S315080209E0BB8100233B8107F1080107F10C030222B0
S315080209F01846FFF721FF4BF61003BB803B1D022169
S31508020A001846FFF7FFFE11233B7110237B713B1D2E
S31508020A1002211846FFF7F6FE00BF1037BD4680BD15
S31508020A2080B58CB000AF78601E23BB8500233B855A
S31508020A3007F1280107F12C0302221846FFF7FCFEEC
S31508020A4097F8293003F00103002B21D0264A07F133
S31508020A50200392E8030018600433198002330A0C53
S31508020A601A700023BB6107F11C0300210A461A808B
S31508020A700A469A7007F1180107F120030722184659
S31508020A80FFF7DAFE07F1180319467868FFF7F0FE52
S31508020A9097F8293003F00203002B21D0134A07F1F5
S31508020AA0100392E8030018600433198002330A0C13
S31508020AB01A700023BB6007F10C0300210A461A804C
S31508020AC00A469A7007F1080107F110030722184629
S31508020AD0FFF7B2FE07F1080319467868FFF73CFFED
S31508020AE000BF3037BD4680BD909802089898020824
S31508020AF080B58CB000AF07F11C0300221A605A6059
S31508020B009A60DA601A61384BD3F8E030364A43F015
S31508020B108003C2F8E030344BD3F8E03003F08003A8
S31508020B20BB61BB69304BD3F8E0302F4A43F001036F
S31508020B30C2F8E0302C4BD3F8E03003F001037B61B6
S31508020B407B69294BD3F8E030274A43F00203C2F8FF
S31508020B50E030254BD3F8E03003F002033B613B69F2
S31508020B60214BD3F8E030204A43F01003C2F8E030B4
S31508020B701D4BD3F8E03003F01003FB60FB681A4BF9
S31508020B80D3F8E030184A43F00403C2F8E030164BB3
S31508020B90D3F8E03003F00403BB60BB68124BD3F80A
S31508020BA0E030114A43F00803C2F8E0300E4BD3F89E
S31508020BB0E03003F008037B607B68012201210B48C1
S31508020BC001F08CF80123FB6101233B6200237B625F
S31508020BD00323BB6207F11C031946044800F0D4FD3F
S31508020BE000BF3037BD4680BD00440258000C02588B
S31508020BF080B500AF00F0CAF800F0D8FB00F014F890
S31508020C00074801F006F9064801F0DCF8FFF770FF1D
S31508020C1000F034F9FFF7E0FE0248FFF701FFFBE7B1
S31508020C20F40100240000009080B59CB000AF07F1E3
S31508020C3024034C220021184605F007FB3B1D2022FF
S31508020C400021184605F001FB042001F08FF9002364
S31508020C503B602B4B9B692A4A43F440439361284BDA
S31508020C609B6903F440433B603B6800BF244B9B6986
S31508020C7003F40053B3F5005FF8D102237B62012324
S31508020C803B6340237B630223BB640023FB64042388
S31508020C903B650C237B650123BB650223FB650223A7
S31508020CA03B660C237B660023BB660023FB6607F1C3
S31508020CB02403184601F0B4F90346002B01D000F0CC
S31508020CC0A2F83F237B600323BB600023FB6000235B
S31508020CD03B6140237B614023BB614FF48063FB6128
S31508020CE040233B623B1D0221184601F073FD034671
S31508020CF0002B01D000F087F800BF7037BD4680BDD3
S31508020D000048025880B582B000AF78600B46FB7087
S31508020D10FB789AB24FF47A737968034803F0B2FC07
S31508020D2000BF0837BD4680BD5002002480B586B094
S31508020D3002AFF860B9601346FB71FB799BB24FF4B8
S31508020D407A720092BA68F968034803F089FE00BF0E
S31508020D501037BD4680BD00BF5002002480B500AFE3
S31508020D6001220121024800F0B9FF00BF80BD00BF81
S31508020D70000C025880B500AF00220121024800F09B
S31508020D80ADFF00BF80BD00BF000C025880B584B01D
S31508020D9000AF3B4600221A605A609A60DA6000F099
S31508020DA07BFC01233B7000237B7000237B601F239F
S31508020DB03B7287237B720023BB720023FB720123DB
S31508020DC03B7301237B730023BB730023FB733B46F0
S31508020DD0184600F099FC01237B704FF010437B60A4
S31508020DE016233B7200237B720323FB7200237B7359
S31508020DF03B46184600F088FC042000F065FC00BF5C
S31508020E001037BD4680BD80B400AF72B600BF00BFC2
S31508020E10FDE7000080B582B000AF78607B681B688A
S31508020E20114A93421CD1114BD3F8D4300F4A23F4FA
S31508020E300013C2F8D4300D4BD3F8D4300B4A23F43E
S31508020E408043C2F8D430C021094800F045FE072184
S31508020E50084800F041FE4FF40061074800F03CFEE6
S31508020E6000BF0837BD4680BD0050005200440258F4
S31508020E7000000258000402580010025880B500AF5C
S31508020E80274B284A1A60264B4FF480025A60244B95
S31508020E9000229A60224B0722DA60214B00221A614D
S31508020EA01F4B00225A611E4B4FF080629A611C4BFF
S31508020EB04FF0A042DA611A4B00221A62184B00223E
S31508020EC05A62174B00229A62154B0022DA62144BB9
S31508020ED04FF080425A63124B00229A63104B00224B
S31508020EE0DA630F4B00221A640D4B00225A640C4B2C
S31508020EF000229A640A4B0022DA64094B00221A6518
S31508020F00074B00225A65064B00229A65044803F0ED
S31508020F1095FA0346002B01D0FFF775FF00BF80BD87
S31508020F2050020024003C004080B5B8B000AF78609B
S31508020F3007F1CC0300221A605A609A60DA601A61D5
S31508020F4007F11003B8220021184605F07EF97B68DE
S31508020F501B68264A934245D14FF480524FF000034C
S31508020F60C7E904230023FB6607F11003184601F0BC
S31508020F7061FF0346002B01D0FFF745FF1C4BD3F850
S31508020F80E8301B4A43F40043C2F8E830184BD3F85A
S31508020F90E83003F40043FB60FB68154BD3F8E030F6
S31508020FA0134A43F00403C2F8E030114BD3F8E03099
S31508020FB003F00403BB60BB684FF4E053C7F8CC30B8
S31508020FC00223C7F8D0300023C7F8D4300023C7F865
S31508020FD0D8300623C7F8DC3007F1CC031946054892
S31508020FE000F0D2FB00BFE037BD4680BD003C0040A2
S31508020FF0004402580008025880B483B000AF0A4B76
S31508021000D3F8F430084A43F00203C2F8F430064B28
S31508021010D3F8F43003F002037B607B6800BF0C3719
S31508021020BD465DF8047B70470044025880B400AFA1
S3150802103000BFFDE780B400AF00BFFDE780B400AF94
S3150802104000BFFDE780B400AF00BFFDE780B400AF84
S3150802105000BFFDE780B400AF00BFBD465DF8047B64
S31508021060704780B400AF00BFBD465DF8047B704789
S3150802107080B400AF00BFBD465DF8047B704780B5FB
S3150802108000AF00F005FA00BF80BD80B400AF0123AF
S315080210901846BD465DF8047B704780B582B000AF3E
S315080210A07860396005F024F9034616221A604FF073
S315080210B0FF3318460837BD4680BD80B582B000AFFB
S315080210C078604FF0FF317868FFF7E7FF00BFFDE76A
S315080210D080B586B000AFF860B9607A6000237B619C
S315080210E00AE0AFF300800146BB685A1CBA60CAB26E
S315080210F01A707B6901337B617A697B689A42F0DBF5
S315080211007B6818461837BD4680BD80B586B000AFE5
S31508021110F860B9607A6000237B6109E0BB685A1CF3
S31508021120BA601B781846AFF300807B6901337B618E
S315080211307A697B689A42F1DB7B6818461837BD469E
S3150802114080BD80B483B000AF78604FF0FF33184695
S315080211500C37BD465DF8047B704780B483B000AF98
S31508021160786039603B684FF400525A60002318468B
S315080211700C37BD465DF8047B704780B483B000AF78
S315080211807860012318460C37BD465DF8047B704724
S3150802119080B485B000AFF860B9607A60002318465B
S315080211A01437BD465DF8047B7047000080B586B0EB
S315080211B000AF7860144A154BD31A7B617B693B6191
S315080211C0134B1B68002B02D1114B124A1A60104BA3
S315080211D01A687B6813443A699A4207D205F088F876
S315080211E003460C221A604FF0FF3309E0084B1B68CE
S315080211F0FB60074B1A687B681344054A1360FB6851
S3150802120018461837BD4680BD0000052400040000B4
S31508021210D80200243004002480B400AF344BD3F83B
S315080212208830334A43F47003C2F88830314B1B685E
S3150802123003F00F03062B07D82E4B1B6823F00F0368
S315080212402C4A43F0070313602B4B1B682A4A43F0C8
S3150802125001031360284B00221A61274B1A68264994
S31508021260264B13400B60234B1B6803F00803002B25
S3150802127007D0204B1B6823F00F031E4A43F00703CF
S3150802128013601D4B00229A611B4B0022DA611A4B2E
S3150802129000221A62184B1A4A9A62174B194ADA62DC
S315080212A0154B194A1A63144B00225A63124B164AF3
S315080212B09A63114B0022DA630F4B134A1A640E4BD8
S315080212C000225A640C4B1B680B4A23F480231360D2
S315080212D0094B00221A660D4B43F2D2021A60044BDE
S315080212E00B4A9A6000BFBD465DF8047B704700BF93
S315080212F000ED00E000200052004402587FEDF6EAB5
S31508021300000202020000FF018002010100400052B1
S315080213100000020880B400AF0A4BDB6823F006031C
S31508021320084A43F00203D36000BF064B5B6803F426
S315080213300053002BF9D000BF00BFBD465DF8047B01
S31508021340704700BF00480258DFF844D003F0ACFFEC
S3150802135003F0D6FF03F0F6FFFFF7DCFFFFF75CFFAB
S315080213600C480D490D4A002302E0D458C4500433F0
S31508021370C4188C42F9D30A4A0A4C002301E01360C6
S315080213800432A242FBD304F0B9FFFFF731FC7047DF
S315080213900000052400000024D8010024F09C02085D
S315080213A0D80100242C040024FEE7000080B582B090
S315080213B000AF032000F03EF901F0C2FB0246154BCE
S315080213C09B691B0A03F00F031349CB5C03F01F0347
S315080213D022FA03F37B600F4B9B6903F00F030E4A55
S315080213E0D35C03F01F037A6822FA03F30B4A1360ED
S315080213F00B4A7B6813600F2000F014F80346002B93
S3150802140001D0012302E0FFF7F7FD0023184608374B
S31508021410BD4680BD00440258A09802080400002474
S315080214200000002480B582B000AF7860154B1B78A7
S31508021430002B01D1012321E0134B1A68114B1B78AB
S3150802144019464FF47A73B3FBF1F3B2FBF3F318467A
S3150802145000F015F90346002B01D001230EE07B6844
S315080214600F2B0AD8002279684FF0FF3000F0EDF80A
S31508021470064A7B681360002300E0012318460837F2
S31508021480BD4680BD0C00002400000024080000248C
S3150802149080B400AF064B1B781A46064B1B681344EA
S315080214A0044A136000BFBD465DF8047B704700BF5F
S315080214B00C000024DC02002480B400AF034B1B6836
S315080214C01846BD465DF8047B704700BFDC0200245F
S315080214D080B485B000AF78607B6803F00703FB60D1
S315080214E00B4BDB68BB60BA684FF6FF031340BB6061
S315080214F0FB681A02BB681A43064B1343BB60044ACD
S31508021500BB68D36000BF1437BD465DF8047B7047DD
S3150802151000ED00E00000FA0580B400AF044BDB687A
S315080215201B0A03F007031846BD465DF8047B70479D
S3150802153000ED00E080B483B000AF03463960FB805B
S31508021540B7F90630002B0ADB3B68DAB20C49B7F961
S3150802155006301201D2B20B4483F800230AE03B6834
S31508021560DAB20849FB8803F00F03043B1201D2B230
S315080215700B441A7600BF0C37BD465DF8047B7047EC
S3150802158000E100E000ED00E080B489B000AFF86049
S31508021590B9607A60FB6803F00703FB61FB69C3F174
S315080215A00703042B28BF0423BB61FB690433062BFC
S315080215B002D9FB69033B00E000237B614FF0FF324F
S315080215C0BB6902FA03F3DA43BB681A407B699A409D
S315080215D04FF0FF317B6901FA03F3D9437B680B406D
S315080215E0134318462437BD465DF8047B704700004E
S315080215F080B582B000AF78607B68013BB3F1807F2B
S3150802160001D301230FE00A4A7B68013B53600F218D
S315080216104FF0FF30FFF78EFF054B00229A60044B0E
S3150802162007221A60002318460837BD4680BD00BF48
S3150802163010E000E080B582B000AF78607868FFF706
S3150802164047FF00BF0837BD4680BD80B586B000AFEC
S315080216500346B9607A60FB81FFF75EFF78617A68B4
S31508021660B9687869FFF790FF0246B7F90E30114656
S315080216701846FFF75FFF00BF1837BD4680BD80B525
S3150802168082B000AF78607868FFF7B2FF0346184663
S315080216900837BD4680BD000080B400AFBFF35F8F38
S315080216A000BF074B5B6A064A23F480335362054B35
S315080216B000225A6000BFBD465DF8047B704700BF32
S315080216C000ED00E090ED00E080B483B000AF7860F2
S315080216D00B4A7B6843F0010353600A4B5B6A094A6B
S315080216E043F480335362BFF34F8F00BFBFF36F8F4C
S315080216F000BF00BF0C37BD465DF8047B704700BFCC
S3150802170090ED00E000ED00E080B483B000AF7860B1
S315080217107B685A781B4B9A601A4B1B69194A23F045
S3150802172001031361174A7B685B68D3607B681B7B7E
S315080217301A077B68DB7A1B061A437B689B7ADB04EB
S315080217401A437B685B7B9B041A437B689B7B5B041F
S315080217501A437B68DB7B1B041A437B685B7A1B0292
S315080217601A437B681B7A5B0013437A681278114620
S31508021770044A0B43136100BF0C37BD465DF8047B70
S31508021780704700BF90ED00E080B489B000AF786082
S3150802179039600023FB61864B7B618CE13B681A68E2
S315080217A00121FB6901FA03F313403B613B69002BF4
S315080217B000F07E813B685B6803F00303012B05D0CA
S315080217C03B685B6803F00303022B30D17B689B6896
S315080217D0BB61FB695B00032202FA03F3DB43BA69C6
S315080217E01340BB613B68DA68FB695B0002FA03F3E4
S315080217F0BA691343BB617B68BA699A607B685B689E
S31508021800BB610122FB6902FA03F3DB43BA6913409F
S31508021810BB613B685B681B0903F00102FB6902FABC
S3150802182003F3BA691343BB617B68BA695A603B68BA
S315080218305B6803F00303032B17D07B68DB68BB6185
S31508021840FB695B00032202FA03F3DB43BA6913401E
S31508021850BB613B689A68FB695B0002FA03F3BA69E3
S315080218601343BB617B68BA69DA603B685B6803F05D
S315080218700303022B23D1FB69DA087B68083253F883
S315080218802230BB61FB6903F007039B000F2202FAB1
S3150802189003F3DB43BA691340BB613B681A69FB6908
S315080218A003F007039B0002FA03F3BA691343BB6109
S315080218B0FB69DA087B680832B96943F822107B6843
S315080218C01B68BB61FB695B00032202FA03F3DB4375
S315080218D0BA691340BB613B685B6803F00302FB69A4
S315080218E05B0002FA03F3BA691343BB617B68BA6900
S315080218F01A603B685B6803F44033002B00F0D8801B
S315080219002C4BD3F8F4302B4A43F00203C2F8F430D6
S31508021910284BD3F8F43003F00203FB60FB68264A2F
S31508021920FB699B08023352F82330BB61FB6903F05B
S3150802193003039B000F2202FA03F3DB43BA6913403F
S31508021940BB617B681D4A93424AD07B681C4A934214
S315080219502BD07B681B4A934225D07B681A4A93424E
S315080219601FD07B68194A934219D07B68184A93425A
S3150802197013D07B68174A93420DD07B68164A934266
S3150802198007D07B68154A934201D1092329E00A2325
S3150802199027E0072325E0062323E0052321E0042385
S315080219A01FE003231DE002231BE0012319E000BF09
S315080219B080000058004402580004005800000258EB
S315080219C00004025800080258000C02580010025877
S315080219D00014025800180258001C02580024025823
S315080219E00023FA6902F0030292009340BA6913438C
S315080219F0BB613849FB699B080233BA6941F823205F
S31508021A004FF0B0431B68BB613B69DB43BA691340BD
S31508021A10BB613B685B6803F48013002B03D0BA6989
S31508021A203B691343BB614FF0B042BB6913604FF089
S31508021A30B0435B68BB613B69DB43BA691340BB6170
S31508021A403B685B6803F40013002B03D0BA693B6951
S31508021A501343BB614FF0B042BB6953607B695B6855
S31508021A60BB613B69DB43BA691340BB613B685B6890
S31508021A7003F40033002B03D0BA693B691343BB61F5
S31508021A807B69BA695A607B691B68BB613B69DB4340
S31508021A90BA691340BB613B685B6803F48033002B69
S31508021AA003D0BA693B691343BB617B69BA691A6099
S31508021AB0FB690133FB613B681A68FB6922FA03F387
S31508021AC0002B7FF46BAE00BF00BF2437BD465DF81E
S31508021AD0047B70470004005880B487B000AF786072
S31508021AE0396000237B61724B3B61D3E001227B693B
S31508021AF002FA03F33A681340FB60FB68002B00F016
S31508021B00C6806C4A7B699B08023352F82330BB6055
S31508021B107B6903F003039B000F2202FA03F3BA68F8
S31508021B201340BB607B68644A934231D07B68634A40
S31508021B3093422BD07B68624A934225D07B68614ADE
S31508021B4093421FD07B68604A934219D07B685F4AEA
S31508021B50934213D07B685E4A93420DD07B685D4AF6
S31508021B60934207D07B685C4A934201D1092310E06D
S31508021B700A230EE007230CE006230AE0052308E001
S31508021B80042306E0032304E0022302E0012300E023
S31508021B9000237A6902F0030292009340BA689A42D5
S31508021BA036D13B691A68FB68DB431A403B691A60FF
S31508021BB03B695A68FB68DB431A403B695A604FF037
S31508021BC0B0435A68FB68DB434FF0B04113404B60A1
S31508021BD04FF0B0431A68FB68DB434FF0B04113403D
S31508021BE00B607B6903F003039B000F2202FA03F3DF
S31508021BF0BB60304A7B699B08023352F82310BB68E4
S31508021C00DA432C487B699B080A40023340F82320B2
S31508021C107B681A687B695B00032101FA03F31A439E
S31508021C207B681A607B69DA087B68083253F82210E7
S31508021C307B6903F007039B000F2202FA03F3DB43D7
S31508021C407A69D20819407B68083243F822107B6801
S31508021C50DA687B695B00032101FA03F3DB431A4066
S31508021C607B68DA607B685A6801217B6901FA03F3AB
S31508021C70DB431A407B685A607B689A687B695B001B
S31508021C80032101FA03F3DB431A407B689A607B69F6
S31508021C9001337B613A687B6922FA03F3002B7FF4EE
S31508021CA025AF00BF00BF1C37BD465DF8047B7047F1
S31508021CB08000005800040058000002580004025828
S31508021CC000080258000C0258001002580014025864
S31508021CD000180258001C02580024025880B483B027
S31508021CE000AF78600B467B8013467B707B78002BAF
S31508021CF003D07A887B689A6103E07B881A047B683A
S31508021D009A6100BF0C37BD465DF8047B704780B503
S31508021D1084B000AF7860FFF7CFFBF8607B68002BD2
S31508021D2001D101234AE07B6893F83D30DBB2022BEE
S31508021D3008D07B6880229A667B68002283F83C205A
S31508021D4001233BE07B681B68DA687B681B6822F024
S31508021D503E02DA607B681B68DA687B681B6822F0D9
S31508021D600102DA6016E0FFF7A7FB0246FB68D31A00
S31508021D70052B0FD97B689B6E43F040027B689A66F7
S31508021D807B68002283F83C207B68032283F83D2087
S31508021D90012313E07B681B68DB6803F00103002B51
S31508021DA0E1D17B681B681F225A607B68002283F890
S31508021DB03C207B68012283F83D2000231846103711
S31508021DC0BD4680BD80B584B000AF78600023FB7342
S31508021DD07B68002B02D10123FB7315E07B681B6825
S31508021DE01A687B681B6822F001021A607B681B6806
S31508021DF09A687B681B6822F002029A607868FFF785
S31508021E0009F87B6800221A65FB7B18461037BD461F
S31508021E1080BD80B588B002AF78600023FB75FFF7F6
S31508021E204BFB38617B681B6DFB60FB6803F008039C
S31508021E30002B04D1FB6803F00403002B52D07B6805
S31508021E401B681B6803F00403002B14D07B681B680D
S31508021E501A687B681B6822F004021A607B68DB6CCE
S31508021E601846FFF754FF0346FB75FB7D002B02D08D
S31508021E707B6804225A657B681B681B6A03F0200389
S31508021E80002B2BD07B681B681A687B681B6842F09C
S31508021E9002021A607B689B6D00933B69012202214C
S31508021EA0786800F02BF80346FB75FB7D002B1FD1E3
S31508021EB07B681B6802225A627B689B6D00933B69AA
S31508021EC000222021786800F019F80346FB75FB7D8D
S31508021ED0002B0DD17B6802221A6509E07B68022273
S31508021EE01A6505E00123FB757B6810225A6500E036
S31508021EF000BFFB7D18461837BD4680BD80B584B045
S31508021F0000AFF860B9603B601346FB711AE0BB6923
S31508021F10B3F1FF3F16D0FFF7CFFA02463B68D31A52
S31508021F20BA699A4202D3BB69002B0BD1FB684FF4FC
S31508021F3000721A65FB685B6D43F00102FB685A651D
S31508021F4001230EE0FB681B681A6ABB681340002B64
S31508021F5014BF01230023DBB21A46FB799A42D6D173
S31508021F60002318461037BD4680BD000080B584B0F0
S31508021F7000AF7860294BDB6803F00703062B0AD00B
S31508021F80264BDB6803F03F037A689A4201D00123A5
S31508021F903FE000233DE0214BDB6823F03F021F4967
S31508021FA07B681343CB60FFF787FAF86009E0FFF70F
S31508021FB083FA0246FB68D31AB3F57A7F01D901235D
S31508021FC027E0164B5B6803F40053B3F5005FEED1C6
S31508021FD07B681E2B08D07B682E2B05D07B681D2BB1
S31508021FE002D07B682D2B13D1FFF766FAF86009E059
S31508021FF0FFF762FA0246FB68D31AB3F57A7F01D96C
S31508022000012306E0054BDB6803F01103112BEFD120
S31508022010002318461037BD4680BD00BF0048025847
S3150802202080B58CB000AF78607B68002B01D10123A4
S31508022030C8E37B681B6803F00103002B00F0878066
S31508022040884B1B6903F03803FB62864B9B6ABB62AB
S31508022050FB6A102B07D0FB6A182B10D1BB6A03F058
S315080220600303022B0BD17F4B1B6803F40033002BAF
S315080220706CD07B685B68002B68D10123A2E37B687E
S315080220805B68B3F5803F06D1764B1B68754A43F405
S31508022090803313602EE07B685B68002B0CD1714B92
S315080220A01B68704A23F4803313606E4B1B686D4AB3
S315080220B023F4802313601DE07B685B68B3F5A02FC9
S315080220C00CD1684B1B68674A43F480231360654B3F
S315080220D01B68644A43F4803313600BE0614B1B6848
S315080220E0604A23F4803313605E4B1B685D4A23F40F
S315080220F0802313607B685B68002B13D0FFF7DCF93B
S31508022100786208E0FFF7D8F902467B6AD31A642B8D
S3150802211001D9032356E3534B1B6803F40033002B00
S31508022120F0D014E0FFF7C8F9786208E0FFF7C4F9BF
S3150802213002467B6AD31A642B01D9032342E3494B2D
S315080221401B6803F40033002BF0D100E000BF7B6864
S315080221501B6803F00203002B00F08C80414B1B69BD
S3150802216003F038033B623F4B9B6AFB613B6A002BD9
S3150802217007D03B6A182B37D1FB6903F00303002B00
S3150802218032D1384B1B6803F00403002B05D07B6859
S31508022190DB68002B01D1012314E3324B1B6823F0C1
S315080221A019027B68DB682F4913430B60FFF784F932
S315080221B0786208E0FFF780F902467B6AD31A022B97
S315080221C001D90323FEE2274B1B6803F00403002B05
S315080221D0F0D0244B5B6823F0FE427B681B691B0622
S315080221E0204913434B6045E07B68DB68002B26D009
S315080221F01C4B1B6823F019027B68DB6819491343D9
S315080222000B60FFF759F9786208E0FFF755F90246BD
S315080222107B6AD31A022B01D90323D3E2114B1B681B
S3150802222003F00403002BF0D00E4B5B6823F0FE424A
S315080222307B681B691B060B4913434B601AE0094B63
S315080222401B68084A23F001031360FFF735F9786221
S315080222500AE0FFF731F902467B6AD31A022B03D941
S315080222600323AFE200440258964B1B6803F00403AB
S31508022270002BEED17B681B6803F01003002B6AD093
S31508022280904B1B6903F03803BB618E4B9B6A7B61DB
S31508022290BB69082B07D0BB69182B1BD17B6903F0D6
S315080222A00303012B16D1874B1B6803F48073002B9B
S315080222B005D07B68DB69802B01D0012382E2814B42
S315080222C0DB6823F07C527B681B6A1B067D49134335
S315080222D0CB6040E07B68DB69002B23D0794B1B6817
S315080222E0784A43F080031360FFF7E6F8786208E05D
S315080222F0FFF7E2F802467B6AD31A022B01D90323B7
S3150802230060E2704B1B6803F48073002BF0D06D4BB0
S31508022310DB6823F07C527B681B6A1B0669491343F8
S31508022320CB6018E0674B1B68664A23F0800313608C
S31508022330FFF7C2F8786208E0FFF7BEF802467B6A42
S31508022340D31A022B01D903233CE25E4B1B6803F422
S315080223508073002BF0D17B681B6803F00803002BFF
S3150802236036D07B685B69002B19D0564B5B6F554A92
S3150802237043F001035367FFF79FF8786208E0FFF717
S315080223809BF802467B6AD31A022B01D9032319E268
S315080223904C4B5B6F03F00203002BF0D018E0494B5D
S315080223A05B6F484A23F001035367FFF785F87862A3
S315080223B008E0FFF781F802467B6AD31A022B01D995
S315080223C00323FFE13F4B5B6F03F00203002BF0D1BF
S315080223D07B681B6803F02003002B36D07B689B6959
S315080223E0002B19D0374B1B68364A43F480531360C7
S315080223F0FFF762F8786208E0FFF75EF802467B6A42
S31508022400D31A022B01D90323DCE12E4B1B6803F4F2
S315080224100053002BF0D018E02A4B1B68294A23F4F4
S3150802242080531360FFF748F8786208E0FFF744F82C
S3150802243002467B6AD31A022B01D90323C2E1214B36
S315080224401B6803F40053002BF0D17B681B6803F06A
S315080224500403002B00F086801B4B1B681A4A43F4C0
S3150802246080731360FFF728F8786208E0FFF724F80C
S3150802247002467B6AD31A642B01D90323A2E1124BC3
S315080224801B6803F48073002BF0D07B689B68012BD2
S3150802249006D10C4B1B6F0B4A43F00103136732E05C
S315080224A07B689B68002B11D1064B1B6F054A23F0EC
S315080224B001031367034B1B6F024A23F004031367D6
S315080224C021E000BF00440258004802587B689B6816
S315080224D0052B0CD1834B1B6F824A43F00403136707
S315080224E0804B1B6F7F4A43F0010313670BE07D4B5A
S315080224F01B6F7C4A23F0010313677A4B1B6F794AD9
S3150802250023F0040313677B689B68002B15D0FEF73C
S31508022510D3FF78620AE0FEF7CFFF02467B6AD31A38
S3150802252041F28832934201D903234BE16D4B1B6F6B
S3150802253003F00203002BEED014E0FEF7BDFF78622B
S315080225400AE0FEF7B9FF02467B6AD31A41F28832DD
S31508022550934201D9032335E1624B1B6F03F0020351
S31508022560002BEED17B685B6A002B00F02A815D4B5B
S315080225701B6903F03803182B00F0BA807B685B6A84
S31508022580022B40F09580574B1B68564A23F08073FE
S315080225901360FEF791FF786208E0FEF78DFF0246A8
S315080225A07B6AD31A022B01D903230BE14D4B1B6815
S315080225B003F00073002BF0D14A4B9A6A4A4B134038
S315080225C07A68916A7A68D26A12010A4345491343BC
S315080225D08B627B681B6B013BC3F308027B685B6BF0
S315080225E0013B5B029BB21A437B689B6B013B1B0454
S315080225F003F4FE031A437B68DB6B013B1B0603F0FD
S31508022600FE43384913430B63364BDB6A354A23F0DC
S315080226100103D362334B5A6B344B13407A68926C7C
S31508022620D200304913434B632E4BDB6A23F00C026C
S315080226307B681B6C2B491343CB622A4BDB6A23F05C
S3150802264002027B685B6C27491343CB62254BDB6A24
S31508022650244A43F48033D362224BDB6A214A43F489
S315080226600033D3621F4BDB6A1E4A43F48023D362CC
S315080226701C4BDB6A1B4A43F00103D362194B1B68E6
S31508022680184A43F080731360FEF716FF786208E073
S31508022690FEF712FF02467B6AD31A022B01D90323DD
S315080226A090E0104B1B6803F00073002BF0D088E013
S315080226B00C4B1B680B4A23F080731360FEF7FCFE73
S315080226C0786208E0FEF7F8FE02467B6AD31A022B06
S315080226D001D9032376E0034B1B6803F00073002B32
S315080226E0F0D16EE0004402580CFCFFFF0700FFFF22
S315080226F0364B9B6A3B61354B1B6BFB607B685B6A9F
S31508022700012B31D03B6903F003027B689B6A9A422C
S315080227102AD13B691B0903F03F027B68DB6A9A42AE
S3150802272022D1FB68C3F308027B681B6B013B9A4202
S315080227301AD1FB685B0A03F07F027B685B6B013B7D
S315080227409A4211D1FB681B0C03F07F027B689B6BD4
S31508022750013B9A4208D1FB681B0E03F07F027B6895
S31508022760DB6B013B9A4201D001232BE0174B5B6BD3
S31508022770DB08C3F30C033B617B689B6C3A699A429C
S315080227801FD0124BDB6A114A23F00103D362FEF70C
S3150802279093FE786200BFFEF78FFE02467B6A93427B
S315080227A0F9D00A4B5A6B0A4B13407A68926CD200DC
S315080227B0064913434B63054BDB6A044A43F001039C
S315080227C0D362002318463037BD4680BD00440258FE
S315080227D00700FFFF80B586B000AF786039607B6876
S315080227E0002B01D101239CE18A4B1B6803F00F03DE
S315080227F03A689A4210D9874B1B6823F00F0285491B
S315080228003B6813430B60834B1B6803F00F033A685C
S315080228109A4201D0012384E17B681B6803F0040312
S31508022820002B10D07B681A697B4B9B6903F07003F7
S315080228309A4208D9784B9B6923F070027B681B6918
S31508022840754913438B617B681B6803F00803002BE9
S3150802285010D07B685A69704BDB6903F070039A42A1
S3150802286008D96D4BDB6923F070027B685B696A499C
S315080228701343CB617B681B6803F01003002B10D04F
S315080228807B689A69644BDB6903F4E0639A4208D968
S31508022890614BDB6923F4E0627B689B695E491343FB
S315080228A0CB617B681B6803F02003002B10D07B6882
S315080228B0DA69594B1B6A03F070039A4208D9564BD8
S315080228C01B6A23F070027B68DB69534913430B6268
S315080228D07B681B6803F00203002B10D07B68DA685A
S315080228E04D4B9B6903F00F039A4208D94A4B9B69E1
S315080228F023F00F027B68DB68474913438B617B68C9
S315080229001B6803F00103002B55D0434B9B6923F444
S3150802291070627B689B68404913438B617B685B687E
S31508022920022B07D13C4B1B6803F40033002B21D141
S315080229300123F6E07B685B68032B07D1364B1B68DD
S3150802294003F00073002B15D10123EAE07B685B686C
S31508022950012B07D1304B1B6803F48073002B09D176
S315080229600123DEE02C4B1B6803F00403002B01D184
S315080229700123D6E0284B1B6923F007027B685B68B4
S31508022980254913430B61FEF797FD78610AE0FEF7C6
S3150802299093FD02467B69D31A41F28832934201D9E2
S315080229A00323BEE01C4B1B6903F038027B685B6895
S315080229B0DB009A42EBD17B681B6803F00203002B0B
S315080229C010D07B68DA68144B9B6903F00F039A42AE
S315080229D008D2114B9B6923F00F027B68DB680E490C
S315080229E013438B610B4B1B6803F00F033A689A4239
S315080229F014D2084B1B6823F00F0206493B6813439F
S31508022A000B60044B1B6803F00F033A689A4205D021
S31508022A10012386E000200052004402587B681B68A6
S31508022A2003F00403002B10D07B681A693F4B9B699D
S31508022A3003F070039A4208D23C4B9B6923F070025A
S31508022A407B681B69394913438B617B681B6803F0F2
S31508022A500803002B10D07B685A69344BDB6903F0F4
S31508022A6070039A4208D2314BDB6923F070027B6805
S31508022A705B692E491343CB617B681B6803F010031D
S31508022A80002B10D07B689A69284BDB6903F4E06354
S31508022A909A4208D2254BDB6923F4E0627B689B697C
S31508022AA022491343CB617B681B6803F02003002B82
S31508022AB010D07B68DA691D4B1B6A03F070039A42D1
S31508022AC008D21A4B1B6A23F070027B68DB69174926
S31508022AD013430B6200F034F80246144B9B691B0A37
S31508022AE003F00F031249CB5C03F01F0322FA03F328
S31508022AF03B610E4B9B6903F00F030D4AD35C03F04F
S31508022B001F033A6922FA03F30A4A13600A4A3B691F
S31508022B1013600A4B1B681846FEF784FC0346FB73D0
S31508022B20FB7B18461837BD4680BD00BF00440258D5
S31508022B30A0980208040000240000002408000024CB
S31508022B4080B489B000AFB34B1B6903F03803182B66
S31508022B5000F2558101A252F823F000BFC12B0208E8
S31508022B60FF2D0208FF2D0208FF2D0208FF2D02087D
S31508022B70FF2D0208FF2D0208FF2D0208E72B020887
S31508022B80FF2D0208FF2D0208FF2D0208FF2D02085D
S31508022B90FF2D0208FF2D0208FF2D0208ED2B020861
S31508022BA0FF2D0208FF2D0208FF2D0208FF2D02083D
S31508022BB0FF2D0208FF2D0208FF2D0208F32B02083B
S31508022BC0944B1B6803F02003002B09D0914B1B681A
S31508022BD0DB0803F00303904A22FA03F3BB6111E10F
S31508022BE08D4BBB610EE18D4BBB610BE18C4BBB611F
S31508022BF008E1884B9B6A03F003037B61854B9B6A5A
S31508022C001B0903F03F033B61824BDB6A03F00103B6
S31508022C10FB60804B5B6BDB08C3F30C03FA6802FBB1
S31508022C2003F307EE903AF8EE677AC7ED027A3B6944
S31508022C30002B00F0E1807B69022B00F083807B6920
S31508022C40022B00F2A1807B69002B03D07B69012B42
S31508022C5056D099E06F4B1B6803F02003002B2DD04A
S31508022C606C4B1B68DB0803F003036B4A22FA03F377
S31508022C707B607B6807EE903AF8EE676A3B6907EE77
S31508022C80903AF8EE677A86EEA77A624B1B6BC3F325
S31508022C90080307EE903AF8EE676A97ED026ADFEDE7
S31508022CA0615AC6EE257A76EEA77AF7EE006A77EECD
S31508022CB0A67A67EE277AC7ED077A87E03B6907EEB9
S31508022CC0903AF8EE677ADFED586A86EEA77A514BA4
S31508022CD01B6BC3F3080307EE903AF8EE676A97EDA3
S31508022CE0026ADFED505AC6EE257A76EEA77AF7EE35
S31508022CF0006A77EEA67A67EE277AC7ED077A65E065
S31508022D003B6907EE903AF8EE677ADFED486A86EE97
S31508022D10A77A404B1B6BC3F3080307EE903AF8EE0B
S31508022D20676A97ED026ADFED3F5AC6EE257A76EEB6
S31508022D30A77AF7EE006A77EEA67A67EE277AC7EDE4
S31508022D40077A43E03B6907EE903AF8EE677ADFEDD9
S31508022D50386A86EEA77A2F4B1B6BC3F3080307EE76
S31508022D60903AF8EE676A97ED026ADFED2E5AC6EEDA
S31508022D70257A76EEA77AF7EE006A77EEA67A67EEF6
S31508022D80277AC7ED077A21E03B6907EE903AF8EE13
S31508022D90677ADFED266A86EEA77A1E4B1B6BC3F3AC
S31508022DA0080307EE903AF8EE676A97ED026ADFEDD6
S31508022DB01D5AC6EE257A76EEA77AF7EE006A77EE00
S31508022DC0A67A67EE277AC7ED077A00BF114B1B6B07
S31508022DD05B0A03F07F0301333B603B6807EE903AD8
S31508022DE0B8EE677AD7ED076AC6EE877AFCEEE77A17
S31508022DF017EE903ABB6105E00023BB6102E0074B80
S31508022E00BB6100BFBB6918462437BD465DF8047B23
S31508022E10704700BF004402580090D00300093D00E5
S31508022E2040787D01000000460024744C0024744A50
S31508022E3020BCBE4B2DE9B04FC6B000AFC7F804019F
S31508022E40002387F81731002387F81631D7F804319B
S31508022E50D3E9002302F00064002554EA050349D0A9
S31508022E60D7F804315B6EB3F5401F2FD0B3F5401F78
S31508022E7028D8B3F5001F1AD0B3F5001F22D8002BA5
S31508022E8003D0B3F5801F07D01CE0AB4BDB6AAA4A16
S31508022E9043F40033D3621AE0D7F804310833022127
S31508022EA0184601F067F9034687F817310FE0D7F895
S31508022EB0043128330221184601F00EFA034687F830
S31508022EC0173104E0012387F8173100E000BF97F8AD
S31508022ED01731002B0AD1984B1B6D23F44011D7F8F2
S31508022EE004315B6E944A0B43136503E097F8173176
S31508022EF087F81631D7F80431D3E9002302F480782B
S31508022F004FF0000958EA090347D0D7F804319B6DF8
S31508022F10042B2AD801A252F823F000BF312F020847
S31508022F203F2F0208552F0208732F0208732F020833
S31508022F30814BDB6A804A43F40033D3621AE0D7F83E
S31508022F40043108330021184601F014F9034687F8BC
S31508022F5017310FE0D7F8043128330021184601F05B
S31508022F60BBF9034687F8173104E0012387F81731BE
S31508022F7000E000BF97F81731002B0AD16E4B1B6D84
S31508022F8023F00701D7F804319B6D6B4A0B4313658F
S31508022F9003E097F8173187F81631D7F80431D3E9E1
S31508022FA0002302F4806A4FF0000B5AEA0B035BD047
S31508022FB0D7F80431D3F8A430B3F5200F3BD0B3F5D4
S31508022FC0200F34D8B3F5000F37D0B3F5000F2ED83B
S31508022FD0B3F5C00F33D0B3F5C00F28D8B3F5800FB9
S31508022FE01AD0B3F5800F22D8002B03D0B3F5001FF1
S31508022FF007D01CE0504BDB6A4F4A43F40033D362D6
S315080230001EE0D7F8043108330021184601F0B2F859
S31508023010034687F8173113E0D7F80431283300211D
S31508023020184601F059F9034687F8173108E00123D3
S3150802303087F8173104E000BF02E000BF00E000BFD6
S3150802304097F81731002B0BD13B4B9B6D23F460018C
S31508023050D7F80431D3F8A430374A0B43936503E013
S3150802306097F8173187F81631D7F80431D3E90023D0
S3150802307002F40063C7F8F8300023C7F8FC30D7E932
S315080230803E120B4613435DD0D7F80431D3F8A83065
S31508023090B3F1A06F3BD0B3F1A06F34D8B3F1806F10
S315080230A037D0B3F1806F2ED8B3F1407F33D0B3F166
S315080230B0407F28D8B3F1007F1AD0B3F1007F22D817
S315080230C0002B03D0B3F1807F07D01CE01A4BDB6AD2
S315080230D0194A43F40033D3621EE0D7F804310833A1
S315080230E00021184601F046F8034687F8173113E01F
S315080230F0D7F8043128330021184601F0EDF80346C3
S3150802310087F8173108E0012387F8173104E000BF72
S3150802311002E000BF00E000BF97F81731002B0DD17F
S31508023120054B9B6D23F0E061D7F80431D3F8A8303C
S31508023130014A0B43936505E00044025897F8173194
S3150802314087F81631D7F80431D3E9002302F0007361
S31508023150C7F8F0300023C7F8F430D7E93C120B461B
S3150802316013433AD0D7F80431DB6C302B1FD0302BFF
S3150802317019D8202B0CD0202B15D8002B19D0102BA0
S3150802318011D1AA4BDB6AA94A43F40033D36211E090
S31508023190D7F8043108330221184600F0EBFF03463C
S315080231A087F8173106E0012387F8173102E000BFD6
S315080231B000E000BF97F81731002B0AD19B4BDB6C56
S315080231C023F03001D7F80431DB6C984A0B43D364F9
S315080231D003E097F8173187F81631D7F80431D3E99F
S315080231E0002302F48053C7F8E8300023C7F8EC300E
S315080231F0D7E93A120B46134351D0D7F80431DB6D9F
S31508023200B3F5804F35D0B3F5804F2ED8B3F5405F6E
S3150802321031D0B3F5405F28D8B3F5005F1AD0B3F5BD
S31508023220005F22D8002B03D0B3F5805F07D01CE0DD
S315080232307E4BDB6A7D4A43F40033D3621CE0D7F83F
S31508023240043108330021184600F094FF034687F834
S31508023250173111E0D7F8043128330021184601F056
S315080232603BF8034687F8173106E0012387F817313A
S3150802327002E000BF00E000BF97F81731002B0AD121
S315080232806A4B1B6D23F4E041D7F80431DB6D674ABC
S315080232900B43136503E097F8173187F81631D7F809
S315080232A00431D3E9002302F40053C7F8E0300023BF
S315080232B0C7F8E430D7E938120B46134353D0D7F888
S315080232C004311B6EB3F5A02F33D0B3F5A02F2CD83B
S315080232D0B3F5802F2FD0B3F5802F26D8B3F5403F0C
S315080232E02BD0B3F5403F20D8B3F5003F12D0B3F543
S315080232F0003F1AD8002B22D0B3F5803F15D1D7F854
S31508023300043108330121184600F034FF034687F8D2
S31508023310173115E0D7F8043128330121184600F091
S31508023320DBFF034687F817310AE0012387F81731CE
S3150802333006E000BF04E000BF02E000BF00E000BFF5
S3150802334097F81731002B0AD1384B1B6D23F4E0216D
S31508023350D7F804311B6E354A0B43136503E097F819
S31508023360173187F81631D7F80431D3E9002302F466
S315080233708043C7F8D8300023C7F8DC30D7E93612BD
S315080233800B46134358D0D7F80431D3F8AC30B3F10F
S31508023390A04F33D0B3F1A04F2CD8B3F1804F2FD022
S315080233A0B3F1804F26D8B3F1405F2BD0B3F1405F1B
S315080233B020D8B3F1005F12D0B3F1005F1AD8002B00
S315080233C022D0B3F1805F15D1D7F804310833012131
S315080233D0184600F0CFFE034687F8173115E0D7F8EE
S315080233E0043128330121184600F076FF034687F890
S315080233F017310AE0012387F8173106E000BF04E017
S3150802340000BF02E000BF00E000BF97F81731002BAB
S315080234100ED1064B9B6D23F0E041D7F80431D3F861
S31508023420AC30024A0B43936506E000BF00440258DB
S3150802343097F8173187F81631D7F80431D3E90023FC
S3150802344002F40043C7F8D0300023C7F8D430D7E9CE
S3150802345034120B46134337D0D7F80431DB6EB3F177
S31508023460005F0ED0B3F1005F16D8002B18D0B3F167
S31508023470805F11D1C44BDB6AC34A43F40033D3627B
S315080234800FE0D7F8043108330121184600F072FE1E
S31508023490034687F8173104E0012387F8173100E05D
S315080234A000BF97F81731002B0AD1B74B1B6D23F0D3
S315080234B04051D7F80431DB6EB34A0B43136503E078
S315080234C097F8173187F81631D7F80431D3E900236C
S315080234D002F08073C7F8C8300023C7F8CC30D7E9A2
S315080234E032120B46134339D0D7F804319B6C032B9F
S315080234F01CD801A252F823F035350208093502080C
S3150802350017350208353502089F4BDB6A9E4A43F493
S315080235100033D3620FE0D7F8043108330221184684
S3150802352000F028FE034687F8173104E0012387F8DE
S31508023530173100E000BF97F81731002B0AD1924BDA
S31508023540DB6C23F00301D7F804319B6C8E4A0B43DC
S31508023550D36403E097F8173187F81631D7F80431A0
S31508023560D3E9002302F48003C7F8C0300023C7F862
S31508023570C430D7E930120B46134300F09980834BC7
S315080235801B68824A43F480731360FDF795FFC7F8F8
S3150802359010010BE0FDF790FF0246D7F81031D31A57
S315080235A0642B03D9032387F8173105E0774B1B6889
S315080235B003F48073002BEDD097F81731002B73D1E3
S315080235C0714B1A6FD7F80431D3F8B030534003F46D
S315080235D04073002B15D06C4B1B6F23F44073C7F84E
S315080235E00C31694B1B6F684A43F480331367664B89
S315080235F01B6F654A23F480331367634AD7F80C3185
S315080236001367D7F80431D3F8B030B3F5807F18D1F1
S31508023610FDF752FFC7F810010DE0FDF74DFF024610
S31508023620D7F81031D21A41F288339A4203D90323C2
S3150802363087F8173105E0544B1B6F03F00203002B82
S31508023640EBD097F81731002B29D1D7F80431D3F8E4
S31508023650B03003F44073B3F5407F0ED14A4B1B6971
S3150802366023F47C51D7F80431D3F8B0301A09484B01
S315080236701340454A0B43136105E0434B1B69424A13
S3150802368023F47C531361404B196FD7F80431D3F8EE
S31508023690B030C3F30B033C4A0B43136708E097F8B1
S315080236A0173187F8163103E097F8173187F816317C
S315080236B0D7F80431D3E9002302F00103C7F8B8307A
S315080236C00023C7F8BC30D7E92E120B46134300F085
S315080236D08F80D7F804319B6F282B71D801A252F834
S315080236E023F000BFC9370208C1370208C1370208EA
S315080236F0C1370208C1370208C1370208C1370208B2
S31508023700C137020895370208C1370208C1370208CD
S31508023710C1370208C1370208C1370208C137020891
S31508023720C1370208AB370208C1370208C137020897
S31508023730C1370208C1370208C1370208C137020871
S31508023740C1370208C9370208C1370208C137020859
S31508023750C1370208C1370208C1370208C137020851
S31508023760C1370208C9370208C1370208C137020839
S31508023770C1370208C1370208C1370208C137020831
S31508023780C1370208C93702080044025800480258DD
S31508023790CFFFFF00D7F8043108330121184600F09D
S315080237A0E9FC034687F817310FE0D7F804312833C6
S315080237B00121184600F090FD034687F8173104E008
S315080237C0012387F8173100E000BF97F81731002B5D
S315080237D00AD1BF4B5B6D23F03801D7F804319B6FD2
S315080237E0BB4A0B43536503E097F8173187F816313E
S315080237F0D7F80431D3E9002302F00203C7F8B03040
S315080238000023C7F8B430D7E92C120B46134341D02C
S31508023810D7F804315B6F052B24D801A252F823F09E
S315080238206D380208393802084F3802086D3802081E
S315080238306D3802086D380208D7F8043108330121B9
S31508023840184600F097FC034687F817310FE0D7F8B9
S31508023850043128330121184600F03EFD034687F855
S31508023860173104E0012387F8173100E000BF97F803
S315080238701731002B0AD1964B5B6D23F00701D7F857
S3150802388004315B6F924A0B43536503E097F817318D
S3150802389087F81631D7F80431D3E9002302F0040376
S315080238A0C7F8A8300023C7F8AC30D7E92A120B4666
S315080238B0134344D0D7F80431D3F89030052B25D8D2
S315080238C001A252F823F000BF15390208E1380208AE
S315080238D0F738020815390208153902081539020897
S315080238E0D7F8043108330121184600F043FC034691
S315080238F087F817310FE0D7F8043128330121184623
S3150802390000F0EAFC034687F8173104E0012387F83A
S31508023910173100E000BF97F81731002B0BD16C4B1B
S315080239209B6D23F00701D7F80431D3F89030684A23
S315080239300B43936503E097F8173187F81631D7F8E2
S315080239400431D3E9002302F02003C7F8A03000238C
S31508023950C7F8A430D7E928120B46134355D0D7F82F
S315080239600431D3F88C30B3F1A04F33D0B3F1A04F62
S315080239702CD8B3F1804F2FD0B3F1804F26D8B3F1AC
S31508023980405F2BD0B3F1405F20D8B3F1005F12D06D
S31508023990B3F1005F1AD8002B22D0B3F1805F15D19C
S315080239A0D7F8043108330021184600F0E3FB034632
S315080239B087F8173115E0D7F804312833022118465B
S315080239C000F08AFC034687F817310AE0012387F8D4
S315080239D0173106E000BF04E000BF02E000BF00E0C6
S315080239E000BF97F81731002B0BD1394B5B6D23F0CB
S315080239F0E041D7F80431D3F88C30354A0B43536586
S31508023A0003E097F8173187F81631D7F80431D3E966
S31508023A10002302F04003C7F898300023C7F89C3009
S31508023A20D7E926120B46134358D0D7F80431D3F8F0
S31508023A309830B3F5A05F33D0B3F5A05F2CD8B3F5B1
S31508023A40805F2FD0B3F5805F26D8B3F5406F2BD0B1
S31508023A50B3F5406F20D8B3F5006F12D0B3F5006FF7
S31508023A601AD8002B22D0B3F5806F15D1D7F80431B6
S31508023A7008330021184600F07DFB034687F8173104
S31508023A8015E0D7F8043128330221184600F024FC41
S31508023A90034687F817310AE0012387F8173106E04B
S31508023AA000BF04E000BF02E000BF00E000BF97F8D5
S31508023AB01731002B0ED1064B9B6D23F4E051D7F834
S31508023AC00431D3F89830024A0B43936506E000BFE7
S31508023AD00044025897F8173187F81631D7F8043197
S31508023AE0D3E9002302F08003C7F890300023C7F811
S31508023AF09430D7E924120B46134355D0D7F804312C
S31508023B00D3F89C30B3F5204F33D0B3F5204F2CD8D9
S31508023B10B3F5004F2FD0B3F5004F26D8B3F5C04FF3
S31508023B202BD0B3F5C04F20D8B3F5804F12D0B3F5DA
S31508023B30804F1AD8002B22D0B3F5005F15D1D7F8DB
S31508023B40043108330021184600F014FB034687F8AF
S31508023B50173115E0D7F8043128330221184600F048
S31508023B60BBFB034687F817310AE0012387F81731AA
S31508023B7006E000BF04E000BF02E000BF00E000BFAD
S31508023B8097F81731002B0BD1A04B9B6D23F460419C
S31508023B90D7F80431D3F89C309C4A0B43936503E06B
S31508023BA097F8173187F81631D7F80431D3E9002385
S31508023BB002F00803C7F888300023C7F88C30D7E923
S31508023BC022120B4613431ED0D7F80431D3F880309D
S31508023BD0B3F5805F0CD1D7F8043128330221184691
S31508023BE000F07AFB0346002B02D0012387F8163130
S31508023BF0864B5B6D23F44051D7F80431D3F88030F5
S31508023C00824A0B435365D7F80431D3E9002302F0FD
S31508023C101003C7F880300023C7F88430D7E920128A
S31508023C200B4613431ED0D7F80431D3F89430B3F5B4
S31508023C30807F0CD1D7F8043128330221184600F0C8
S31508023C404BFB0346002B02D0012387F816316F4B34
S31508023C509B6D23F44071D7F80431D3F894306B4A3C
S31508023C600B439365D7F80431D3E9002302F4002302
S31508023C70BB670023FB67D7E91E120B4613433ED0E8
S31508023C80D7F80431D3F8A030B3F5003F22D0B3F504
S31508023C90003F1BD8002B03D0B3F5803F0BD015E0AD
S31508023CA0D7F8043108330021184600F063FA0346B0
S31508023CB087F817310FE0D7F804312833022118465E
S31508023CC000F00AFB034687F8173104E0012387F858
S31508023CD0173100E000BF97F81731002B0BD14B4B79
S31508023CE09B6D23F44031D7F80431D3F8A030474A04
S31508023CF00B43936503E097F8173187F81631D7F81F
S31508023D000431D3E9002302F480233B6700237B674F
S31508023D10D7E91C120B4613433BD0D7F80431D3F824
S31508023D208430B3F5401F1FD0B3F5401F18D8B3F53A
S31508023D30801F03D0B3F5001F07D011E0334BDB6AAF
S31508023D40324A43F40033D3620FE0D7F804312833FA
S31508023D500121184600F0C0FA034687F8173104E035
S31508023D60012387F8173100E000BF97F81731002BB7
S31508023D700BD1264B5B6D23F44011D7F80431D3F8E7
S31508023D808430224A0B43536503E097F8173187F8C4
S31508023D901631D7F80431D3E9002302F48033BB661F
S31508023DA00023FB66D7E91A120B46134334D0D7F819
S31508023DB004311B6D002B03D0B3F5803F07D011E009
S31508023DC0124BDB6A114A43F40033D3620EE0D7F88A
S31508023DD0043108330221184600F0CCF9034687F865
S31508023DE0173103E0012387F8173100BF97F8173117
S31508023DF0002B0DD1054BDB6C23F48031D7F8043147
S31508023E001B6D024A0B43D36406E000BF0044025806
S31508023E1097F8173187F81631D7F80431D3E9002312
S31508023E2002F000533B6600237B66D7E918120B465D
S31508023E3013430CD0D7F8043128330221184600F070
S31508023E404BFA0346002B02D0012387F81631D7F81E
S31508023E500431D3E9002302F40033BB650023FB6572
S31508023E60D7E916120B46134336D0D7F80431DB6F5F
S31508023E70B3F5407F18D0B3F5407F11D8B3F5007F6C
S31508023E8014D0B3F5007F0BD8002B11D0B3F5807F81
S31508023E9006D1B74BDB6AB64A43F40033D36208E06D
S31508023EA0012387F8173104E000BF02E000BF00E0F3
S31508023EB000BF97F81731002B0AD1AD4B5B6D23F47F
S31508023EC04071D7F80431DB6FA94A0B43536503E007
S31508023ED097F8173187F81631D7F80431D3E9002352
S31508023EE002F480133B6500237B65D7E914120B465F
S31508023EF0134309D09E4B1B6D23F00041D7F80431BA
S31508023F001B6F9B4A0B431365D7F80431D3E9002389
S31508023F1002F40013BB640023FB64D7E912120B46B2
S31508023F20134309D0924B1B6D23F08071D7F80431E5
S31508023F309B6E8F4A0B431365D7F80431D3E90023E6
S31508023F4002F080433B6400237B64D7E910120B46D8
S31508023F5013430ED0864B1B69854A23F4004313612B
S31508023F60834B1969D7F80431D3F8B430804A0B4326
S31508023F701361D7F80431D3E9002302F00043BB6387
S31508023F800023FB63D7E90E120B46134309D0784B7D
S31508023F90DB6C23F04051D7F804315B6D744A0B434E
S31508023FA0D364D7F80431D3E9002302F400033B6350
S31508023FB000237B63D7E90C120B4613430AD06C4BDA
S31508023FC05B6D23F44001D7F80431D3F88830684A88
S31508023FD00B435365D7F80431D3E900230021B962AC
S31508023FE003F00103FB62D7E90A120B46134311D009
S31508023FF0D7F8043108330021184600F0BBF8034607
S3150802400087F8173197F81731002B03D097F817312D
S3150802401087F81631D7F80431D3E90023002139622B
S3150802402003F002037B62D7E908120B46134311D049
S31508024030D7F8043108330121184600F09BF80346E5
S3150802404087F8173197F81731002B03D097F81731ED
S3150802405087F81631D7F80431D3E900230021B9616C
S3150802406003F00403FB61D7E906120B46134311D08A
S31508024070D7F8043108330221184600F07BF80346C4
S3150802408087F8173197F81731002B03D097F81731AD
S3150802409087F81631D7F80431D3E9002300213961AC
S315080240A003F008037B61D7E904120B46134311D0C8
S315080240B0D7F8043128330021184600F00DF90346D3
S315080240C087F8173197F81731002B03D097F817316D
S315080240D087F81631D7F80431D3E900230021B960ED
S315080240E003F01003FB60D7E902120B46134311D003
S315080240F0D7F8043128330121184600F0EDF80346B3
S3150802410087F8173197F81731002B03D097F817312C
S3150802411087F81631D7F80431D3E90023002139602C
S3150802412003F020037B60D7E900120B46134311D034
S31508024130D7F8043128330221184600F0CDF8034691
S3150802414087F8173197F81731002B03D097F81731EC
S3150802415087F8163197F81631002B01D1002300E0B3
S315080241600123184607F58C77BD46BDE8B08F00BF18
S315080241700044025880B584B000AF786039600023E5
S31508024180FB73534B9B6A03F00303032B01D10123F1
S3150802419099E04F4B1B684E4A23F080631360FDF784
S315080241A08BF9B86008E0FDF787F90246BB68D31AAF
S315080241B0022B01D9032386E0454B1B6803F00063F3
S315080241C0002BF0D1424B9B6A23F47C327B681B6836
S315080241D01B033F4913438B627B685B68013BC3F34E
S315080241E008027B689B68013B5B029BB21A437B68A9
S315080241F0DB68013B1B0403F4FE031A437B681B6955
S31508024200013B1B0603F0FE43314913438B63304BD4
S31508024210DB6A23F0C0027B685B692D491343CB62D4
S315080242202B4BDB6A23F020027B689B6928491343E0
S31508024230CB62274BDB6A264A23F01003D362244B50
S31508024240DA6B244B13407A68D269D20020491343A9
S31508024250CB631F4BDB6A1E4A43F01003D3623B68EB
S31508024260002B06D11A4BDB6A194A43F40023D362A0
S315080242700FE03B68012B06D1154BDB6A144A43F45F
S315080242808013D36205E0124BDB6A114A43F400132A
S31508024290D3620F4B1B680E4A43F080631360FDF727
S315080242A00BF9B86008E0FDF707F90246BB68D31AAE
S315080242B0022B01D9032306E0054B1B6803F00063B2
S315080242C0002BF0D0FB7B18461037BD4680BD00BFD9
S315080242D0004402580700FFFF80B584B000AF78603B
S315080242E039600023FB73534B9B6A03F00303032BCA
S315080242F001D1012399E04F4B1B684E4A23F08053A4
S315080243001360FDF7D9F8B86008E0FDF7D5F802465C
S31508024310BB68D31A022B01D9032386E0454B1B68D7
S3150802432003F00053002BF0D1424B9B6A23F07C72B8
S315080243307B681B681B053F4913438B627B685B6876
S31508024340013BC3F308027B689B68013B5B029BB295
S315080243501A437B68DB68013B1B0403F4FE031A431A
S315080243607B681B69013B1B0603F0FE433149134375
S315080243700B64304BDB6A23F440627B685B692D4928
S315080243801343CB622B4BDB6A23F400727B689B696F
S3150802439028491343CB62274BDB6A264A23F48073E8
S315080243A0D362244B5A6C244B13407A68D269D200E2
S315080243B0204913434B641F4BDB6A1E4A43F480733E
S315080243C0D3623B68002B06D11A4BDB6A194A43F4BF
S315080243D08003D3620FE03B68012B06D1154BDB6ADB
S315080243E0144A43F40003D36205E0124BDB6A114A0E
S315080243F043F08073D3620F4B1B680E4A43F0805317
S315080244001360FDF759F8B86008E0FDF755F802465B
S31508024410BB68D31A022B01D9032306E0054B1B6896
S3150802442003F00053002BF0D0FB7B18461037BD462D
S3150802443080BD00BF004402580700FFFF80B584B064
S3150802444000AF78607B68002B01D101230FE17B68FE
S3150802445000229A627B681B68874A93420FD07B6860
S315080244601B68864A93420AD07B681B68844A934231
S3150802447005D07B68DB680F2B01D90123F7E0786842
S3150802448000F0F6FEF8607B681B687B4A93420CD004
S315080244907B681B68794A934207D07B681B68784A0F
S315080244A0934202D0FB68082B11D87B681B68724AB4
S315080244B0934209D07B681B68704A934204D07B6892
S315080244C01B686F4A934204D1FB68102B01D901235A
S315080244D0CDE07B6893F88130DBB2002B06D17B688E
S315080244E0002283F880207868FCF71EFD7B6802228A
S315080244F083F881207B681B681A687B681B6822F030
S3150802450001021A607B681B689B6803F4F813BB6098
S315080245107B689B69B3F1806F19D17B685B68B3F5D9
S31508024520800F03D17B689B6B002B08D07B685B6886
S31508024530002B0CD17B689B6BB3F1805F07D17B683C
S315080245401B681A687B681B6842F480521A607B688B
S315080245505B6803F48003002B0FD07B68DB68062BAD
S315080245600BD97B681B681B6823F480717B681A6DFC
S315080245707B681B680A431A6007E07B681B681A682F
S315080245807B681B6822F480721A607B68DA697B682A
S315080245909B6A1A43BB681A437B68DB6B42EA0301D0
S315080245A07B68DA687B681B680A439A607B685A6B81
S315080245B07B685B6A1A437B689B6B1A437B689B69B9
S315080245C01A437B681B691A437B685B691A437B68D3
S315080245D01B6A1A437B685B681A437B68DB6C1A435F
S315080245E07B689B681A437B689B6C42EA03017B687B
S315080245F09A6D7B681B680A43DA607B685B68002BE6
S3150802460013D17B681B689B6823F4C0527B681B68BE
S3150802461042F400629A607B681B689B6823F4C06256
S315080246207B681B6842F480629A607B681B681A6D15
S315080246307B681B6822F001021A657B685B6803F4D3
S315080246408003002B0AD07B681B68DB6823F00041D5
S315080246507B685A6D7B681B680A43DA607B680022AE
S31508024660C3F884207B68012283F881200023184638
S315080246701037BD4680BD00BF0030014000380040FB
S31508024680003C004080B588B002AFF860B9603B6074
S315080246901346FB80FB681B6820337B61FCF70CFF23
S315080246A03861FB6893F88130DBB2012B01D0022313
S315080246B0D1E1BB68002B02D0FB88002B01D1012374
S315080246C0C9E1FB6893F88030012B01D10223C2E1CC
S315080246D0FB68012283F88020FB68032283F8812085
S315080246E0FB680022C3F88420FB68BA68DA65FB68AF
S315080246F0FA88A3F86020FB68FA88A3F86220FB68A8
S3150802470000225A66FB680022A3F86820FB6800228A
S31508024710A3F86A20FB6800225A67FB6800221A6718
S31508024720FB689B68B3F5C02F08D1FB681B681A683B
S31508024730FB681B6842F400621A6009E0FB681B68A2
S31508024740DB6823F4C022FB681B6842F40032DA6095
S31508024750FB681B685A68964B1340F988FA68126810
S315080247600B435360FB681B681A68FB681B6842F0B8
S3150802477001021A60FB685B68B3F5800F07D1FB6814
S315080247801B681A68FB681B6842F400721A60FB68A9
S31508024790DB680F2B47D93FE0FB681B685B6903F0B0
S315080247A00203022B14D1FB68DA6DFB681B681268D8
S315080247B01A62FB68DB6D1A1DFB68DA65FB68B3F8DB
S315080247C062309BB2013B9AB2FB68A3F8622023E0EF
S315080247D0FCF772FE02463B69D31A3A689A4203D834
S315080247E03B68B3F1FF3F02D13B68002B14D1F8684E
S315080247F000F070FCFB68D3F8843043F48072FB68DF
S31508024800C3F88420FB68012283F88120FB68002212
S3150802481083F8802003231EE1FB68B3F862309BB25B
S31508024820002BB9D1F1E0FB68DB68072B40F2E68082
S315080248305DE0FB681B685B6903F00203022B32D159
S31508024840FB68B3F862309BB2012B18D9FB68DB6BA5
S31508024850002B14D0FB68DA6DFB681B6812681A62B3
S31508024860FB68DB6D1A1DFB68DA65FB68B3F8623014
S315080248709BB2023B9AB2FB68A3F8622037E0FB6858
S31508024880DB6D1A887B691A80FB68DB6D9A1CFB68EC
S31508024890DA65FB68B3F862309BB2013B9AB2FB68F1
S315080248A0A3F8622023E0FCF707FE02463B69D31A07
S315080248B03A689A4203D83B68B3F1FF3F02D13B6894
S315080248C0002B14D1F86800F005FCFB68D3F8843095
S315080248D043F48072FB68C3F88420FB68012283F8DC
S315080248E08120FB68002283F880200323B3E0FB685B
S315080248F0B3F862309BB2002B9BD186E0FB681B683B
S315080249005B6903F00203022B54D1FB68B3F86230E9
S315080249109BB2032B18D9FB68DB6B402B14D9FB68B7
S31508024920DA6DFB681B6812681A62FB68DB6D1A1D72
S31508024930FB68DA65FB68B3F862309BB2043B9AB24D
S31508024940FB68A3F8622059E0FB68B3F862309BB2B1
S31508024950012B17D9FB68DB6B002B13D0FB68DB6DC9
S315080249601A887B691A80FB68DB6D9A1CFB68DA6514
S31508024970FB68B3F862309BB2023B9AB2FB68A3F8B3
S3150802498062203BE0FB68DA6DFB681B68203312780D
S315080249901A70FB68DB6D5A1CFB68DA65FB68B3F8AC
S315080249A062309BB2013B9AB2FB68A3F8622025E00B
S315080249B00000FFFFFCF780FD02463B69D31A3A68FE
S315080249C09A4203D83B68B3F1FF3F02D13B68002BFA
S315080249D014D1F86800F07EFBFB68D3F8843043F400
S315080249E08072FB68C3F88420FB68012283F8812061
S315080249F0FB68002283F8802003232CE0FB68B3F8C7
S31508024A0062309BB2002B7FF479AF3B6900933B6817
S31508024A1000220821F86800F0FDFB0346002B07D0A8
S31508024A20FB68D3F8843043F02002FB68C3F884207D
S31508024A30F86800F04FFBFB68012283F88120FB68C7
S31508024A40002283F88020FB68D3F88430002B01D03B
S31508024A50012300E0002318461837BD4680BD00BF73
S31508024A6080B58EB002AFF860B9607A607B80FB6869
S31508024A701B6820337B62FB681B6830333B62FB682A
S31508024A80DB6B5B099BB20133FB83FCF715FDB8614F
S31508024A907B887B857B883B85FB6893F88130DBB214
S31508024AA0012B01D0022310E3BB68002B05D07B68DB
S31508024AB0002B02D07B88002B01D1012305E3FB687A
S31508024AC093F88030012B01D10223FEE2FB68012212
S31508024AD083F88020FB68052283F88120FB68002280
S31508024AE0C3F88420FB687A685A66FB687A88A3F852
S31508024AF06A20FB687A88A3F86820FB68BA68DA65D0
S31508024B00FB687A88A3F86220FB687A88A3F8602093
S31508024B10FB6800221A67FB6800225A67FB681B6853
S31508024B20DA68FB681B6822F4C022DA60FB681B6835
S31508024B30704A934209D0FB681B686F4A934204D0B5
S31508024B40FB681B686D4A934202D11023FB6201E09F
S31508024B500823FB62FB681B685A68694B134079880D
S31508024B60FA6812680B435360FB681B681A68FB688D
S31508024B701B6842F001021A60FB685B68B3F5800F96
S31508024B8007D1FB681B681A68FB681B6842F4007247
S31508024B901A60FB68DB680F2B40F2A280FB6A9B084F
S31508024BA0FB6294E0FB681B685B6903F00203022B55
S31508024BB020D17B8D002B1DD03A8D798DFB6A0B4453
S31508024BC09A4217D2FB68DA6DFB681B6812681A628A
S31508024BD0FB68DB6D1A1DFB68DA65FB68B3F86230A1
S31508024BE09BB2013B9AB2FB68A3F86220FB68B3F852
S31508024BF062307B85FB681B685B697B613B8D002B9A
S31508024C0065D0FB681B685B6903F00103012B18D1A9
S31508024C10FB681A68FB685B6E126B1A60FB685B6E50
S31508024C201A1DFB685A66FB68B3F86A309BB2013BE9
S31508024C309AB2FB68A3F86A20FB68B3F86A303B8528
S31508024C4045E03A8DFB8B9A421DD27B6903F40043F9
S31508024C50002B18D0FB681A68FB685B6E126B1A6029
S31508024C60FB685B6E1A1DFB685A66FB68B3F86A3006
S31508024C709BB2013B9AB2FB68A3F86A20FB68B3F8B9
S31508024C806A303B8523E0FCF717FC0246BB69D31A58
S31508024C90BA6B9A4203D8BB6BB3F1FF3F02D1BB6B27
S31508024CA0002B14D1F86800F015FAFB68D3F88430A3
S31508024CB043F48072FB68C3F88420FB68012283F8F8
S31508024CC08120FB68002283F880200323FDE17B8D87
S31508024CD0002B7FF467AF3B8D002B7FF463AFCEE1E9
S31508024CE0FB68DB68072B40F2C281FB6A5B08FB6242
S31508024CF0C9E000BF0030014000380040003C0040D7
S31508024D000000FFFFFB681B685B6903F00203022BC6
S31508024D101FD17B8D002B1CD03A8D798DFB6A0B44F3
S31508024D209A4216D2FB68DB6D1A887B6A1A80FB6880
S31508024D30DB6D9A1CFB68DA65FB68B3F862309BB2D6
S31508024D40013B9AB2FB68A3F86220FB68B3F86230AB
S31508024D507B85FB681B685B697B613B8D002B00F0DA
S31508024D609280FB681B685B6903F00103012B18D16B
S31508024D70FB685B6E3A6A128892B21A80FB685B6EAF
S31508024D809A1CFB685A66FB68B3F86A309BB2013B09
S31508024D909AB2FB68A3F86A20FB68B3F86A303B85C7
S31508024DA071E03A8DFB8B9A4228D27B6903F4004361
S31508024DB0002B23D0FB685B6E3A6A128892B21A807D
S31508024DC0FB685B6E9A1CFB685A66FB685B6E3A6AFE
S31508024DD0128892B21A80FB685B6E9A1CFB685A6646
S31508024DE0FB68B3F86A309BB2023B9AB2FB68A3F837
S31508024DF06A20FB68B3F86A303B8544E03B8D012B99
S31508024E001DD17B6903F40053002B18D0FB685B6E37
S31508024E103A6A128892B21A80FB685B6E9A1CFB6821
S31508024E205A66FB68B3F86A309BB2013B9AB2FB68D2
S31508024E30A3F86A20FB68B3F86A303B8523E0FCF7DF
S31508024E403BFB0246BB69D31ABA6B9A4203D8BB6BC1
S31508024E50B3F1FF3F02D1BB6B002B14D1F86800F007
S31508024E6039F9FB68D3F8843043F48072FB68C3F8D7
S31508024E708420FB68012283F88120FB68002283F8DC
S31508024E808020032321E17B8D002B7FF43BAF3B8DF2
S31508024E90002B7FF437AFF2E0FB681B685B6903F00F
S31508024EA00203022B21D17B8D002B1ED03A8D798DE0
S31508024EB0FB6A0B449A4218D2FB68DA6DFB681B68D8
S31508024EC0203312781A70FB68DB6D5A1CFB68DA65A8
S31508024ED0FB68B3F862309BB2013B9AB2FB68A3F84F
S31508024EE06220FB68B3F862307B85FB681B685B69E6
S31508024EF07B613B8D002B00F0BA80FB681B685B69FF
S31508024F0003F00103012B1BD1FB681B6803F1300276
S31508024F10FB685B6E1278D2B21A70FB685B6E5A1C1B
S31508024F20FB685A66FB68B3F86A309BB2013B9AB2D1
S31508024F30FB68A3F86A20FB68B3F86A303B8596E0FB
S31508024F403A8DFB8B9A424AD27B6903F40043002BC3
S31508024F5045D0FB681B6803F13002FB685B6E12786A
S31508024F60D2B21A70FB685B6E5A1CFB685A66FB68FB
S31508024F701B6803F13002FB685B6E1278D2B21A70B4
S31508024F80FB685B6E5A1CFB685A66FB681B6803F172
S31508024F903002FB685B6E1278D2B21A70FB685B6EDF
S31508024FA05A1CFB685A66FB681B6803F13002FB68E9
S31508024FB05B6E1278D2B21A70FB685B6E5A1CFB687B
S31508024FC05A66FB68B3F86A309BB2043B9AB2FB682E
S31508024FD0A3F86A20FB68B3F86A303B8547E03B8D45
S31508024FE0032B20D87B6903F4C043002B1BD0FB6834
S31508024FF01B6803F13002FB685B6E1278D2B21A7034
S31508025000FB685B6E5A1CFB685A66FB68B3F86A3023
S315080250109BB2013B9AB2FB68A3F86A20FB68B3F815
S315080250206A303B8523E0FCF747FA0246BB69D31A86
S31508025030BA6B9A4203D8BB6BB3F1FF3F02D1BB6B83
S31508025040002B14D1F86800F045F8FB68D3F88430D1
S3150802505043F48072FB68C3F88420FB68012283F854
S315080250608120FB68002283F8802003232DE07B8DB4
S31508025070002B7FF411AF3B8D002B7FF40DAFBB697C
S315080250800093BB6B00220821F86800F0C3F80346B8
S31508025090002B07D0FB68D3F8843043F02002FB6864
S315080250A0C3F88420F86800F015F8FB68012283F833
S315080250B08120FB68002283F88020FB68D3F88430BD
S315080250C0002B01D0012300E0002318463037BD46E5
S315080250D080BD00BF80B485B000AF78607B681B686E
S315080250E05B69FB607B681B689A697B681B6842F090
S315080250F008029A617B681B689A697B681B6842F09A
S3150802510010029A617B681B681A687B681B6822F022
S3150802511001021A607B681B6819697B681A683C4B2E
S315080251200B4013617B681B689A687B681B6822F4CC
S3150802513040429A607B6893F88130DBB2042B14D024
S31508025140FB6803F02003002B0FD07B68D3F884306A
S3150802515043F080027B68C3F884207B681B689A69DF
S315080251607B681B6842F020029A617B6893F881305B
S31508025170DBB2032B14D0FB6803F04003002B0FD0DD
S315080251807B68D3F8843043F004027B68C3F8842032
S315080251907B681B689A697B681B6842F040029A61C1
S315080251A0FB6803F40073002B0FD07B68D3F88430B6
S315080251B043F001027B68C3F884207B681B689A69FE
S315080251C07B681B6842F400729A61FB6803F4807379
S315080251D0002B0FD07B68D3F8843043F008027B6833
S315080251E0C3F884207B681B689A697B681B6842F44B
S315080251F080729A617B680022A3F862207B6800228B
S31508025200A3F86A2000BF1437BD465DF8047B7047D1
S3150802521090FCFFFF80B584B000AFF860B9603B60D0
S315080252201346FB7110E0FCF747F90246BB69D31A2D
S315080252303A689A4203D83B68B3F1FF3F02D13B680A
S31508025240002B01D103230FE0FB681B685A69BB6870
S315080252501340BA689A420CBF01230023DBB21A46EE
S31508025260FB799A42DFD0002318461037BD4680BD27
S3150802527080B485B000AF78607B68DB6B5B0901336D
S31508025280FB607B68DB680133BB60BB680733DB08FE
S31508025290BB60BB68FA6802FB03F318461437BD46BF
S315080252A05DF8047B7047000080B582B000AF124BF0
S315080252B01B6803F04053B3F1405F07D100BFBFF349
S315080252C04F8F00BF61B600BF62B611E072B600BF6B
S315080252D071B600BF094B1B687B604FF000631B6801
S315080252E03B603B6883F3088800BF7B68984700BF2A
S315080252F000BF0837BD4680BD0050005204000008B2
S3150802530080B483B000AF0C4B7B600C4B3B6007E06C
S315080253107A68531C7B603B68591C396012781A708C
S315080253203B68074A9342F3D300BF00BF0C37BD461A
S315080253305DF8047B704700BFC89E02080000009013
S315080253400000009080B483B000AF094B7B6004E094
S315080253507B685A1C7A6000221A707B68054A934257
S31508025360F6D300BF00BF0C37BD465DF8047B704715
S315080253700000009018000090F0B52DED028BB0EEFB
S31508025380408B85B017460D9D0C9E18EE902A25F087
S315080253902005002AB6BF2D220022B1EE408B462DEB
S315080253A00C461A7004D0452D00D10134022100E0C2
S315080253B0032103AB019302AB009322463346B0EEB8
S315080253C0480B01F051F8472D14D1FB070AD50219EB
S315080253D0B5EE408BF1EE10FA08BF03923021039B1B
S315080253E0934219D3039B0E9A1B1A136005B0BDECA0
S315080253F0028BF0BD462D00EB0402E9D10378302B6F
S3150802540007D1B5EE408BF1EE10FA1CBFC4F10104C8
S31508025410346033681A44DBE75C1C03941970DEE7D0
S31508025420F7B50029BABF49422D232B230929027051
S31508025430437029DD0DF107031D460A271A46B1FBFB
S31508025440F7F607FB1614303402F8014C0C46632CA7
S3150802545003F1FF333146F1DC3031941E03F8011CA7
S31508025460411C2346AB420AD30DF109039B1AAC42EF
S3150802547088BF002302330344181A03B0F0BD13F899
S31508025480016B01F8016FEDE7302330318370C1708B
S31508025490031DF1E7000000002DE9F04F8DB00C4620
S315080254A0DDF8588016461F46054600F0D7FED0F8A6
S315080254B000B05846FAF77CFF00230A93D8F8003062
S315080254C094F8189022680590073323F0070303F12E
S315080254D00801C8F8001093ED000B9FED976BB0EE2C
S315080254E0C07BB4EE467BF1EE10FA84ED120B24DD96
S315080254F0B5EEC00BF1EE10FA02D52D2384F843302F
S315080255008F49904BB9F1470F94BF8846984622F0C7
